{
  "contractName": "Marketh",
  "abi": [
    {
      "constant": true,
      "inputs": [
        {
          "name": "",
          "type": "address"
        }
      ],
      "name": "storeOwners",
      "outputs": [
        {
          "name": "",
          "type": "bool"
        }
      ],
      "payable": false,
      "stateMutability": "view",
      "type": "function"
    },
    {
      "constant": true,
      "inputs": [
        {
          "name": "",
          "type": "uint256"
        }
      ],
      "name": "itemToStore",
      "outputs": [
        {
          "name": "",
          "type": "uint256"
        }
      ],
      "payable": false,
      "stateMutability": "view",
      "type": "function"
    },
    {
      "constant": true,
      "inputs": [
        {
          "name": "",
          "type": "address"
        },
        {
          "name": "",
          "type": "uint256"
        }
      ],
      "name": "storeOwnerToStores",
      "outputs": [
        {
          "name": "",
          "type": "uint256"
        }
      ],
      "payable": false,
      "stateMutability": "view",
      "type": "function"
    },
    {
      "constant": true,
      "inputs": [],
      "name": "storesCount",
      "outputs": [
        {
          "name": "",
          "type": "uint256"
        }
      ],
      "payable": false,
      "stateMutability": "view",
      "type": "function"
    },
    {
      "constant": true,
      "inputs": [],
      "name": "storeOwnersCount",
      "outputs": [
        {
          "name": "",
          "type": "uint256"
        }
      ],
      "payable": false,
      "stateMutability": "view",
      "type": "function"
    },
    {
      "constant": true,
      "inputs": [
        {
          "name": "",
          "type": "uint256"
        }
      ],
      "name": "items",
      "outputs": [
        {
          "name": "storeId",
          "type": "uint256"
        },
        {
          "name": "imageUrl",
          "type": "string"
        },
        {
          "name": "title",
          "type": "string"
        },
        {
          "name": "description",
          "type": "string"
        },
        {
          "name": "price",
          "type": "uint256"
        },
        {
          "name": "quantity",
          "type": "uint256"
        },
        {
          "name": "active",
          "type": "bool"
        }
      ],
      "payable": false,
      "stateMutability": "view",
      "type": "function"
    },
    {
      "constant": true,
      "inputs": [],
      "name": "itemsCount",
      "outputs": [
        {
          "name": "",
          "type": "uint256"
        }
      ],
      "payable": false,
      "stateMutability": "view",
      "type": "function"
    },
    {
      "constant": true,
      "inputs": [
        {
          "name": "",
          "type": "uint256"
        }
      ],
      "name": "stores",
      "outputs": [
        {
          "name": "imageUrl",
          "type": "string"
        },
        {
          "name": "title",
          "type": "string"
        },
        {
          "name": "description",
          "type": "string"
        },
        {
          "name": "active",
          "type": "bool"
        }
      ],
      "payable": false,
      "stateMutability": "view",
      "type": "function"
    },
    {
      "constant": true,
      "inputs": [
        {
          "name": "",
          "type": "uint256"
        }
      ],
      "name": "storeToStoreOwner",
      "outputs": [
        {
          "name": "",
          "type": "address"
        }
      ],
      "payable": false,
      "stateMutability": "view",
      "type": "function"
    },
    {
      "constant": true,
      "inputs": [],
      "name": "admin",
      "outputs": [
        {
          "name": "",
          "type": "address"
        }
      ],
      "payable": false,
      "stateMutability": "view",
      "type": "function"
    },
    {
      "inputs": [],
      "payable": false,
      "stateMutability": "nonpayable",
      "type": "constructor"
    },
    {
      "constant": false,
      "inputs": [
        {
          "name": "_recipient",
          "type": "address"
        }
      ],
      "name": "addStoreOwner",
      "outputs": [],
      "payable": false,
      "stateMutability": "nonpayable",
      "type": "function"
    },
    {
      "constant": false,
      "inputs": [
        {
          "name": "_recipient",
          "type": "address"
        }
      ],
      "name": "removeStoreOwner",
      "outputs": [],
      "payable": false,
      "stateMutability": "nonpayable",
      "type": "function"
    },
    {
      "constant": false,
      "inputs": [
        {
          "name": "_imageUrl",
          "type": "string"
        },
        {
          "name": "_title",
          "type": "string"
        },
        {
          "name": "_description",
          "type": "string"
        }
      ],
      "name": "addStore",
      "outputs": [],
      "payable": false,
      "stateMutability": "nonpayable",
      "type": "function"
    },
    {
      "constant": false,
      "inputs": [
        {
          "name": "_storeId",
          "type": "uint256"
        }
      ],
      "name": "removeStore",
      "outputs": [],
      "payable": false,
      "stateMutability": "nonpayable",
      "type": "function"
    },
    {
      "constant": false,
      "inputs": [
        {
          "name": "_storeId",
          "type": "uint256"
        },
        {
          "name": "_imageUrl",
          "type": "string"
        },
        {
          "name": "_title",
          "type": "string"
        },
        {
          "name": "_description",
          "type": "string"
        },
        {
          "name": "_price",
          "type": "uint256"
        },
        {
          "name": "_quantity",
          "type": "uint256"
        }
      ],
      "name": "addItem",
      "outputs": [],
      "payable": false,
      "stateMutability": "nonpayable",
      "type": "function"
    },
    {
      "constant": false,
      "inputs": [
        {
          "name": "_itemId",
          "type": "uint256"
        }
      ],
      "name": "removeItem",
      "outputs": [],
      "payable": false,
      "stateMutability": "nonpayable",
      "type": "function"
    },
    {
      "constant": false,
      "inputs": [
        {
          "name": "_itemId",
          "type": "uint256"
        },
        {
          "name": "_imageUrl",
          "type": "string"
        },
        {
          "name": "_title",
          "type": "string"
        },
        {
          "name": "_description",
          "type": "string"
        },
        {
          "name": "_price",
          "type": "uint256"
        },
        {
          "name": "_quantity",
          "type": "uint256"
        }
      ],
      "name": "editItem",
      "outputs": [],
      "payable": false,
      "stateMutability": "nonpayable",
      "type": "function"
    },
    {
      "constant": false,
      "inputs": [
        {
          "name": "_itemId",
          "type": "uint256"
        }
      ],
      "name": "buy",
      "outputs": [],
      "payable": true,
      "stateMutability": "payable",
      "type": "function"
    },
    {
      "constant": false,
      "inputs": [],
      "name": "withdraw",
      "outputs": [],
      "payable": false,
      "stateMutability": "nonpayable",
      "type": "function"
    }
  ],
  "bytecode": "0x608060405234801561001057600080fd5b5060058054600160a060020a031916331790556114a9806100326000396000f3006080604052600436106101065763ffffffff7c0100000000000000000000000000000000000000000000000000000000600035041663057cc2a1811461010b57806306dd79a8146101405780631b4862331461016a57806333929522146102415780633ccfd60b146102655780636174fdd11461027a578063713291711461029b578063940b6c18146102b35780639adeb5f1146103965780639bc0432c146103b7578063aa0cd2b8146103cf578063b75fd88f146103e4578063bfb231d2146103f9578063d5be1bc314610575578063d96a094a14610658578063e2c03ace14610663578063e8a59cd814610678578063f4bf3200146107dc578063f851a44014610810575b600080fd5b34801561011757600080fd5b5061012c600160a060020a0360043516610825565b604080519115158252519081900360200190f35b34801561014c57600080fd5b5061015860043561083a565b60408051918252519081900360200190f35b34801561017657600080fd5b506040805160206004803580820135601f810184900484028501840190955284845261023f94369492936024939284019190819084018382808284375050604080516020601f89358b018035918201839004830284018301909452808352979a99988101979196509182019450925082915084018382808284375050604080516020601f89358b018035918201839004830284018301909452808352979a99988101979196509182019450925082915084018382808284375094975061084c9650505050505050565b005b34801561024d57600080fd5b50610158600160a060020a0360043516602435610991565b34801561027157600080fd5b5061023f6109c1565b34801561028657600080fd5b5061023f600160a060020a0360043516610a06565b3480156102a757600080fd5b5061023f600435610a48565b3480156102bf57600080fd5b5060408051602060046024803582810135601f810185900485028601850190965285855261023f95833595369560449491939091019190819084018382808284375050604080516020601f89358b018035918201839004830284018301909452808352979a99988101979196509182019450925082915084018382808284375050604080516020601f89358b018035918201839004830284018301909452808352979a999881019791965091820194509250829150840183828082843750949750508435955050506020909201359150610a9f9050565b3480156103a257600080fd5b5061023f600160a060020a0360043516610c2d565b3480156103c357600080fd5b5061023f600435610c74565b3480156103db57600080fd5b50610158610cca565b3480156103f057600080fd5b50610158610cd0565b34801561040557600080fd5b50610411600435610cd6565b604051808881526020018060200180602001806020018781526020018681526020018515151515815260200184810384528a818151815260200191508051906020019080838360005b8381101561047257818101518382015260200161045a565b50505050905090810190601f16801561049f5780820380516001836020036101000a031916815260200191505b5084810383528951815289516020918201918b019080838360005b838110156104d25781810151838201526020016104ba565b50505050905090810190601f1680156104ff5780820380516001836020036101000a031916815260200191505b5084810382528851815288516020918201918a019080838360005b8381101561053257818101518382015260200161051a565b50505050905090810190601f16801561055f5780820380516001836020036101000a031916815260200191505b509a505050505050505050505060405180910390f35b34801561058157600080fd5b5060408051602060046024803582810135601f810185900485028601850190965285855261023f95833595369560449491939091019190819084018382808284375050604080516020601f89358b018035918201839004830284018301909452808352979a99988101979196509182019450925082915084018382808284375050604080516020601f89358b018035918201839004830284018301909452808352979a999881019791965091820194509250829150840183828082843750949750508435955050506020909201359150610ed99050565b61023f60043561103c565b34801561066f57600080fd5b5061015861115d565b34801561068457600080fd5b50610690600435611163565b604080518215156060820152608080825286519082015285519091829160208084019284019160a08501918a019080838360005b838110156106dc5781810151838201526020016106c4565b50505050905090810190601f1680156107095780820380516001836020036101000a031916815260200191505b50848103835287518152875160209182019189019080838360005b8381101561073c578181015183820152602001610724565b50505050905090810190601f1680156107695780820380516001836020036101000a031916815260200191505b50848103825286518152865160209182019188019080838360005b8381101561079c578181015183820152602001610784565b50505050905090810190601f1680156107c95780820380516001836020036101000a031916815260200191505b5097505050505050505060405180910390f35b3480156107e857600080fd5b506107f460043561134d565b60408051600160a060020a039092168252519081900360200190f35b34801561081c57600080fd5b506107f4611368565b60066020526000908152604090205460ff1681565b60046020526000908152604090205481565b610854611377565b3360009081526006602052604090205460ff16151560011461087557600080fd5b5060408051608081018252848152602080820185905281830184905260016060830181905260088054600090815260028452858120805473ffffffffffffffffffffffffffffffffffffffff19163390811790915581526003845294852090548154808401835591865283862090910155835490810180855593805282518051939493859360049093027f290decd9548b62a8d60345a988386fc84ba6bc95484008f6362f93160ef3e56301926109309284929101906113a2565b50602082810151805161094992600185019201906113a2565b50604082015180516109659160028401916020909101906113a2565b50606091909101516003909101805460ff19169115159190911790555050600880546001019055505050565b6003602052816000526040600020818154811015156109ac57fe5b90600052602060002001600091509150505481565b336000818152600a6020526040808220805490839055905190929183156108fc02918491818181858888f19350505050158015610a02573d6000803e3d6000fd5b5050565b600554600160a060020a03163314610a1d57600080fd5b600160a060020a03166000908152600660205260409020805460ff1916905560078054600019019055565b3360009081526006602052604090205460ff161515600114610a6957600080fd5b6000600182815481101515610a7a57fe5b60009182526020909120600790910201600601805460ff191691151591909117905550565b610aa7611420565b3360009081526006602052604090205460ff161515600114610ac857600080fd5b600087815260026020526040902054600160a060020a03163314610aeb57600080fd5b506040805160e0810182528781526020808201888152928201879052606082018690526080820185905260a08201849052600160c08301819052805480820180835560009290925283517fb10e2d527612073b26eecdfd717e6a320cf44b4afac2b0732d9fcbe2b7fa0cf6600790920291820190815594518051949592948694610b99937fb10e2d527612073b26eecdfd717e6a320cf44b4afac2b0732d9fcbe2b7fa0cf7019201906113a2565b5060408201518051610bb59160028401916020909101906113a2565b5060608201518051610bd19160038401916020909101906113a2565b50608082015160048281019190915560a0830151600583015560c0909201516006909101805460ff1916911515919091179055600980546000908152602092909252604090912098909855505085546001019095555050505050565b600554600160a060020a03163314610c4457600080fd5b600160a060020a03166000908152600660205260409020805460ff19166001908117909155600780549091019055565b3360009081526006602052604090205460ff161515600114610c9557600080fd5b60008082815481101515610ca557fe5b60009182526020909120600490910201600301805460ff191691151591909117905550565b60085481565b60075481565b6001805482908110610ce457fe5b9060005260206000209060070201600091509050806000015490806001018054600181600116156101000203166002900480601f016020809104026020016040519081016040528092919081815260200182805460018160011615610100020316600290048015610d965780601f10610d6b57610100808354040283529160200191610d96565b820191906000526020600020905b815481529060010190602001808311610d7957829003601f168201915b50505060028085018054604080516020601f6000196101006001871615020190941695909504928301859004850281018501909152818152959695945090925090830182828015610e285780601f10610dfd57610100808354040283529160200191610e28565b820191906000526020600020905b815481529060010190602001808311610e0b57829003601f168201915b5050505060038301805460408051602060026001851615610100026000190190941693909304601f8101849004840282018401909252818152949594935090830182828015610eb85780601f10610e8d57610100808354040283529160200191610eb8565b820191906000526020600020905b815481529060010190602001808311610e9b57829003601f168201915b50505050600483015460058401546006909401549293909290915060ff1687565b3360009081526006602052604090205460ff161515600114610efa57600080fd5b33600160a060020a031660026000600189815481101515610f1757fe5b600091825260208083206007909202909101548352820192909252604001902054600160a060020a031614610f4b57600080fd5b84600187815481101515610f5b57fe5b90600052602060002090600702016001019080519060200190610f7f9291906113a2565b5083600187815481101515610f9057fe5b90600052602060002090600702016002019080519060200190610fb49291906113a2565b5082600187815481101515610fc557fe5b90600052602060002090600702016003019080519060200190610fe99291906113a2565b5081600187815481101515610ffa57fe5b9060005260206000209060070201600401819055508060018781548110151561101f57fe5b906000526020600020906007020160050181905550505050505050565b6002600060018381548110151561104f57fe5b60009182526020808320600792909202909101548352820192909252604001902054600160a060020a031633141561108657600080fd5b600180548290811061109457fe5b906000526020600020906007020160040154341415156110b357600080fd5b60006001828154811015156110c457fe5b9060005260206000209060070201600501541115156110e257600080fd5b60018054829081106110f057fe5b906000526020600020906007020160040154600a60006002600060018681548110151561111957fe5b600091825260208083206007909202909101548352828101939093526040918201812054600160a060020a0316845291830193909352910190208054909101905550565b60095481565b600080548290811061117157fe5b60009182526020918290206004919091020180546040805160026001841615610100026000190190931692909204601f81018590048502830185019091528082529193509183919083018282801561120a5780601f106111df5761010080835404028352916020019161120a565b820191906000526020600020905b8154815290600101906020018083116111ed57829003601f168201915b505050505090806001018054600181600116156101000203166002900480601f0160208091040260200160405190810160405280929190818152602001828054600181600116156101000203166002900480156112a85780601f1061127d576101008083540402835291602001916112a8565b820191906000526020600020905b81548152906001019060200180831161128b57829003601f168201915b50505060028085018054604080516020601f600019610100600187161502019094169590950492830185900485028101850190915281815295969594509092509083018282801561133a5780601f1061130f5761010080835404028352916020019161133a565b820191906000526020600020905b81548152906001019060200180831161131d57829003601f168201915b5050506003909301549192505060ff1684565b600260205260009081526040902054600160a060020a031681565b600554600160a060020a031681565b6080604051908101604052806060815260200160608152602001606081526020016000151581525090565b828054600181600116156101000203166002900490600052602060002090601f016020900481019282601f106113e357805160ff1916838001178555611410565b82800160010185558215611410579182015b828111156114105782518255916020019190600101906113f5565b5061141c929150611460565b5090565b60e0604051908101604052806000815260200160608152602001606081526020016060815260200160008152602001600081526020016000151581525090565b61147a91905b8082111561141c5760008155600101611466565b905600a165627a7a72305820962797e8378ea1047b246bbc3cef6bc4156756476161c83dc48a8e3d2f1fce990029",
  "source": "pragma solidity ^0.4.0;\n\ncontract Marketh {\n    \n    struct Item {\n        uint storeId;\n        string imageUrl;\n        string title;\n        string description;\n        uint price;\n        uint quantity;\n        bool active;\n    }\n    \n    struct Store {\n        string imageUrl;\n        string title;\n        string description;\n        bool active;\n    }\n\n    Store[] public stores;\n    \n    Item[] public items;\n    \n    mapping(uint => address) public storeToStoreOwner;\n    mapping(address => uint[]) public storeOwnerToStores;\n    \n    mapping(uint => uint) public itemToStore;\n\n    address public admin;\n\n    mapping(address => bool) public storeOwners;\n    \n    uint public storeOwnersCount;\n    uint public storesCount;\n    uint public itemsCount;\n    \n    mapping (address => uint) pendingWithdrawals;\n\n\n    constructor() public {\n        admin = msg.sender;\n    }\n\n    // MODIFIER admin\n    modifier onlyAdmin() {\n        require(msg.sender == admin);\n        _;\n    }\n\n    // MODIFIER storeOwner\n    modifier onlyStoreOwner(){\n        require(storeOwners[msg.sender] == true);\n        _;\n    }\n\n    // FUNCTION addStoreOwner [ADMIN] PRIVATE\n    function addStoreOwner(address _recipient) public onlyAdmin {\n        storeOwners[_recipient] = true;\n        storeOwnersCount++;\n    }\n\n    // FUNCTION removeStoreOwner [ADMIN] PRIVATE\n    function removeStoreOwner(address _recipient) public onlyAdmin {\n        storeOwners[_recipient] = false;\n        storeOwnersCount--;\n    }\n\n    // FUNCTION viewStoreOwners [ADMIN] PRIVATE\n\n    // FUNCTION addStore [STOREOWNER]\n    function addStore(string _imageUrl, string _title, string _description) public onlyStoreOwner {\n        Store memory newStore = Store({\n            imageUrl: _imageUrl,\n            title: _title,\n            description: _description,\n            active: true\n        });\n        \n        storeToStoreOwner[storesCount] = msg.sender;\n        storeOwnerToStores[msg.sender].push(storesCount);\n\n        stores.push(newStore);\n\n        storesCount++;\n    }\n\n    // FUNCTION removeStore [STOREOWNER]\n    function removeStore(uint _storeId) public onlyStoreOwner {\n        stores[_storeId].active = false;\n    }\n\n    // FUNCTION addItem [STOREOWNER]\n    function addItem(uint _storeId, string _imageUrl, string _title, string _description, uint _price, uint _quantity) public onlyStoreOwner {\n        require(storeToStoreOwner[_storeId] == msg.sender);\n\n        Item memory newItem = Item({\n            storeId: _storeId,\n            imageUrl: _imageUrl,\n            title: _title,\n            description: _description,\n            price: _price,\n            quantity: _quantity,\n            active: true\n        });\n\n        items.push(newItem);\n        \n        itemToStore[itemsCount] = _storeId;\n\n        itemsCount++;\n     }\n\n    // FUNCTION removeItem [STOREOWNER]\n    function removeItem(uint _itemId) public onlyStoreOwner {\n        items[_itemId].active = false;\n    }\n\n    // FUNCTION editItem [STOREOWNER]\n    function editItem(uint _itemId, string _imageUrl, string _title, string _description, uint _price, uint _quantity) public onlyStoreOwner {\n        require(storeToStoreOwner[items[_itemId].storeId] == msg.sender);\n\n        items[_itemId].imageUrl = _imageUrl;\n        items[_itemId].title = _title;\n        items[_itemId].description = _description;\n        items[_itemId].price = _price;\n        items[_itemId].quantity = _quantity;\n    }\n\n\n    // FUNCTION buyItem [STOREOWNER | BUYER] [CANNOT BUY FROM OWN STORE]\n    function buy(uint _itemId) public payable {\n        require(msg.sender != storeToStoreOwner[items[_itemId].storeId]);\n        require(msg.value == items[_itemId].price);\n        require(items[_itemId].quantity > 0);\n        \n        pendingWithdrawals[storeToStoreOwner[items[_itemId].storeId]] += items[_itemId].price;\n    }\n    \n\n    // FUNCTION withdraw\n    function withdraw() public {\n        uint amount = pendingWithdrawals[msg.sender];\n        // Prevent re-entrancy attacks\n        pendingWithdrawals[msg.sender] = 0;\n        msg.sender.transfer(amount);\n    }\n\n}",
  "sourcePath": "/Users/willsputra/Desktop/projects/marketh/contracts/Marketh.sol",
  "compiler": {
    "name": "solc",
    "version": "0.4.24+commit.e67f0147.Emscripten.clang"
  },
  "schemaVersion": "2.0.1",
  "updatedAt": "2018-08-14T22:40:14.227Z"
}