{
  "contractName": "Marketh",
  "abi": [
    {
      "constant": true,
      "inputs": [
        {
          "name": "",
          "type": "address"
        }
      ],
      "name": "storeOwners",
      "outputs": [
        {
          "name": "",
          "type": "bool"
        }
      ],
      "payable": false,
      "stateMutability": "view",
      "type": "function"
    },
    {
      "constant": true,
      "inputs": [
        {
          "name": "",
          "type": "uint256"
        }
      ],
      "name": "itemToStore",
      "outputs": [
        {
          "name": "",
          "type": "uint256"
        }
      ],
      "payable": false,
      "stateMutability": "view",
      "type": "function"
    },
    {
      "constant": true,
      "inputs": [
        {
          "name": "",
          "type": "address"
        },
        {
          "name": "",
          "type": "uint256"
        }
      ],
      "name": "storeOwnerToStores",
      "outputs": [
        {
          "name": "",
          "type": "uint256"
        }
      ],
      "payable": false,
      "stateMutability": "view",
      "type": "function"
    },
    {
      "constant": true,
      "inputs": [],
      "name": "owner",
      "outputs": [
        {
          "name": "",
          "type": "address"
        }
      ],
      "payable": false,
      "stateMutability": "view",
      "type": "function"
    },
    {
      "constant": true,
      "inputs": [],
      "name": "storesCount",
      "outputs": [
        {
          "name": "",
          "type": "uint256"
        }
      ],
      "payable": false,
      "stateMutability": "view",
      "type": "function"
    },
    {
      "constant": true,
      "inputs": [],
      "name": "storeOwnersCount",
      "outputs": [
        {
          "name": "",
          "type": "uint256"
        }
      ],
      "payable": false,
      "stateMutability": "view",
      "type": "function"
    },
    {
      "constant": true,
      "inputs": [
        {
          "name": "",
          "type": "uint256"
        }
      ],
      "name": "items",
      "outputs": [
        {
          "name": "storeId",
          "type": "uint256"
        },
        {
          "name": "imageUrl",
          "type": "string"
        },
        {
          "name": "title",
          "type": "string"
        },
        {
          "name": "description",
          "type": "string"
        },
        {
          "name": "price",
          "type": "uint256"
        },
        {
          "name": "quantity",
          "type": "uint256"
        },
        {
          "name": "active",
          "type": "bool"
        }
      ],
      "payable": false,
      "stateMutability": "view",
      "type": "function"
    },
    {
      "constant": true,
      "inputs": [],
      "name": "itemsCount",
      "outputs": [
        {
          "name": "",
          "type": "uint256"
        }
      ],
      "payable": false,
      "stateMutability": "view",
      "type": "function"
    },
    {
      "constant": true,
      "inputs": [
        {
          "name": "",
          "type": "uint256"
        }
      ],
      "name": "stores",
      "outputs": [
        {
          "name": "imageUrl",
          "type": "string"
        },
        {
          "name": "title",
          "type": "string"
        },
        {
          "name": "description",
          "type": "string"
        },
        {
          "name": "active",
          "type": "bool"
        }
      ],
      "payable": false,
      "stateMutability": "view",
      "type": "function"
    },
    {
      "constant": false,
      "inputs": [
        {
          "name": "newOwner",
          "type": "address"
        }
      ],
      "name": "transferOwnership",
      "outputs": [],
      "payable": false,
      "stateMutability": "nonpayable",
      "type": "function"
    },
    {
      "constant": true,
      "inputs": [
        {
          "name": "",
          "type": "uint256"
        }
      ],
      "name": "storeToStoreOwner",
      "outputs": [
        {
          "name": "",
          "type": "address"
        }
      ],
      "payable": false,
      "stateMutability": "view",
      "type": "function"
    },
    {
      "constant": true,
      "inputs": [],
      "name": "admin",
      "outputs": [
        {
          "name": "",
          "type": "address"
        }
      ],
      "payable": false,
      "stateMutability": "view",
      "type": "function"
    },
    {
      "inputs": [],
      "payable": false,
      "stateMutability": "nonpayable",
      "type": "constructor"
    },
    {
      "anonymous": false,
      "inputs": [
        {
          "indexed": true,
          "name": "previousOwner",
          "type": "address"
        },
        {
          "indexed": true,
          "name": "newOwner",
          "type": "address"
        }
      ],
      "name": "OwnershipTransferred",
      "type": "event"
    },
    {
      "constant": false,
      "inputs": [],
      "name": "toggleContractActive",
      "outputs": [],
      "payable": false,
      "stateMutability": "nonpayable",
      "type": "function"
    },
    {
      "constant": false,
      "inputs": [
        {
          "name": "_recipient",
          "type": "address"
        }
      ],
      "name": "addStoreOwner",
      "outputs": [],
      "payable": false,
      "stateMutability": "nonpayable",
      "type": "function"
    },
    {
      "constant": false,
      "inputs": [
        {
          "name": "_recipient",
          "type": "address"
        }
      ],
      "name": "removeStoreOwner",
      "outputs": [],
      "payable": false,
      "stateMutability": "nonpayable",
      "type": "function"
    },
    {
      "constant": false,
      "inputs": [
        {
          "name": "_imageUrl",
          "type": "string"
        },
        {
          "name": "_title",
          "type": "string"
        },
        {
          "name": "_description",
          "type": "string"
        }
      ],
      "name": "addStore",
      "outputs": [],
      "payable": false,
      "stateMutability": "nonpayable",
      "type": "function"
    },
    {
      "constant": false,
      "inputs": [
        {
          "name": "_storeId",
          "type": "uint256"
        }
      ],
      "name": "removeStore",
      "outputs": [],
      "payable": false,
      "stateMutability": "nonpayable",
      "type": "function"
    },
    {
      "constant": false,
      "inputs": [
        {
          "name": "_storeId",
          "type": "uint256"
        },
        {
          "name": "_imageUrl",
          "type": "string"
        },
        {
          "name": "_title",
          "type": "string"
        },
        {
          "name": "_description",
          "type": "string"
        },
        {
          "name": "_price",
          "type": "uint256"
        },
        {
          "name": "_quantity",
          "type": "uint256"
        }
      ],
      "name": "addItem",
      "outputs": [],
      "payable": false,
      "stateMutability": "nonpayable",
      "type": "function"
    },
    {
      "constant": false,
      "inputs": [
        {
          "name": "_itemId",
          "type": "uint256"
        }
      ],
      "name": "removeItem",
      "outputs": [],
      "payable": false,
      "stateMutability": "nonpayable",
      "type": "function"
    },
    {
      "constant": false,
      "inputs": [
        {
          "name": "_itemId",
          "type": "uint256"
        },
        {
          "name": "_imageUrl",
          "type": "string"
        },
        {
          "name": "_title",
          "type": "string"
        },
        {
          "name": "_description",
          "type": "string"
        },
        {
          "name": "_price",
          "type": "uint256"
        },
        {
          "name": "_quantity",
          "type": "uint256"
        }
      ],
      "name": "editItem",
      "outputs": [],
      "payable": false,
      "stateMutability": "nonpayable",
      "type": "function"
    },
    {
      "constant": false,
      "inputs": [
        {
          "name": "_itemId",
          "type": "uint256"
        }
      ],
      "name": "buy",
      "outputs": [],
      "payable": true,
      "stateMutability": "payable",
      "type": "function"
    },
    {
      "constant": false,
      "inputs": [],
      "name": "withdraw",
      "outputs": [],
      "payable": false,
      "stateMutability": "nonpayable",
      "type": "function"
    }
  ],
  "bytecode": "0x608060405234801561001057600080fd5b5060008054600160a060020a03191633179055600c805460ff191690556117358061003c6000396000f3006080604052600436106101275763ffffffff7c0100000000000000000000000000000000000000000000000000000000600035041663057cc2a1811461012c57806306dd79a8146101615780631385d24c1461018b5780631b486233146101a257806333929522146102775780633ccfd60b1461029b5780636174fdd1146102b057806371329171146102d15780638da5cb5b146102e9578063940b6c181461031a5780639adeb5f1146103fd5780639bc0432c1461041e578063aa0cd2b814610436578063b75fd88f1461044b578063bfb231d214610460578063d5be1bc3146105dc578063d96a094a146106bf578063e2c03ace146106ca578063e8a59cd8146106df578063f2fde38b14610843578063f4bf320014610864578063f851a4401461087c575b600080fd5b34801561013857600080fd5b5061014d600160a060020a0360043516610891565b604080519115158252519081900360200190f35b34801561016d57600080fd5b506101796004356108a6565b60408051918252519081900360200190f35b34801561019757600080fd5b506101a06108b8565b005b3480156101ae57600080fd5b506040805160206004803580820135601f81018490048402850184019095528484526101a094369492936024939284019190819084018382808284375050604080516020601f89358b018035918201839004830284018301909452808352979a99988101979196509182019450925082915084018382808284375050604080516020601f89358b018035918201839004830284018301909452808352979a9998810197919650918201945092508291508401838280828437509497506108e39650505050505050565b34801561028357600080fd5b50610179600160a060020a0360043516602435610a41565b3480156102a757600080fd5b506101a0610a71565b3480156102bc57600080fd5b506101a0600160a060020a0360043516610ab6565b3480156102dd57600080fd5b506101a0600435610b14565b3480156102f557600080fd5b506102fe610b77565b60408051600160a060020a039092168252519081900360200190f35b34801561032657600080fd5b5060408051602060046024803582810135601f81018590048502860185019096528585526101a095833595369560449491939091019190819084018382808284375050604080516020601f89358b018035918201839004830284018301909452808352979a99988101979196509182019450925082915084018382808284375050604080516020601f89358b018035918201839004830284018301909452808352979a999881019791965091820194509250829150840183828082843750949750508435955050506020909201359150610b869050565b34801561040957600080fd5b506101a0600160a060020a0360043516610d1c565b34801561042a57600080fd5b506101a0600435610d77565b34801561044257600080fd5b50610179610dda565b34801561045757600080fd5b50610179610de0565b34801561046c57600080fd5b50610478600435610de6565b604051808881526020018060200180602001806020018781526020018681526020018515151515815260200184810384528a818151815260200191508051906020019080838360005b838110156104d95781810151838201526020016104c1565b50505050905090810190601f1680156105065780820380516001836020036101000a031916815260200191505b5084810383528951815289516020918201918b019080838360005b83811015610539578181015183820152602001610521565b50505050905090810190601f1680156105665780820380516001836020036101000a031916815260200191505b5084810382528851815288516020918201918a019080838360005b83811015610599578181015183820152602001610581565b50505050905090810190601f1680156105c65780820380516001836020036101000a031916815260200191505b509a505050505050505050505060405180910390f35b3480156105e857600080fd5b5060408051602060046024803582810135601f81018590048502860185019096528585526101a095833595369560449491939091019190819084018382808284375050604080516020601f89358b018035918201839004830284018301909452808352979a99988101979196509182019450925082915084018382808284375050604080516020601f89358b018035918201839004830284018301909452808352979a999881019791965091820194509250829150840183828082843750949750508435955050506020909201359150610fe99050565b6101a060043561114c565b3480156106d657600080fd5b5061017961132d565b3480156106eb57600080fd5b506106f7600435611333565b604080518215156060820152608080825286519082015285519091829160208084019284019160a08501918a019080838360005b8381101561074357818101518382015260200161072b565b50505050905090810190601f1680156107705780820380516001836020036101000a031916815260200191505b50848103835287518152875160209182019189019080838360005b838110156107a357818101518382015260200161078b565b50505050905090810190601f1680156107d05780820380516001836020036101000a031916815260200191505b50848103825286518152865160209182019188019080838360005b838110156108035781810151838201526020016107eb565b50505050905090810190601f1680156108305780820380516001836020036101000a031916815260200191505b5097505050505050505060405180910390f35b34801561084f57600080fd5b506101a0600160a060020a036004351661151d565b34801561087057600080fd5b506102fe6004356115b1565b34801561088857600080fd5b506102fe6115cc565b60076020526000908152604090205460ff1681565b60056020526000908152604090205481565b600054600160a060020a031633146108cf57600080fd5b600c805460ff19811660ff90911615179055565b6108eb611603565b3360009081526007602052604090205460ff16151560011461090c57600080fd5b600c5460ff161515610a3b575060408051608081018252848152602080820185905281830184905260016060830181905260098054600090815260038452858120805473ffffffffffffffffffffffffffffffffffffffff191633908117909155815260048085529581209154825480850184559282528482209092019190915581548083018084559290915283518051949592948694929093027fb10e2d527612073b26eecdfd717e6a320cf44b4afac2b0732d9fcbe2b7fa0cf601926109d7928492019061162e565b5060208281015180516109f0926001850192019061162e565b5060408201518051610a0c91600284019160209091019061162e565b50606091909101516003909101805460ff191691151591909117905550600954610a379060016115db565b6009555b50505050565b600460205281600052604060002081815481101515610a5c57fe5b90600052602060002001600091509150505481565b336000818152600b6020526040808220805490839055905190929183156108fc02918491818181858888f19350505050158015610ab2573d6000803e3d6000fd5b5050565b600054600160a060020a03163314610acd57600080fd5b600c5460ff161515610b1157600160a060020a0381166000908152600760205260409020805460ff19169055600854610b0d90600163ffffffff6115f116565b6008555b50565b3360009081526007602052604090205460ff161515600114610b3557600080fd5b600c5460ff161515610b11576000600282815481101515610b5257fe5b60009182526020909120600790910201600601805460ff191691151591909117905550565b600054600160a060020a031681565b610b8e6116ac565b3360009081526007602052604090205460ff161515600114610baf57600080fd5b600087815260036020526040902054600160a060020a03163314610bd257600080fd5b506040805160e0810182528781526020808201888152928201879052606082018690526080820185905260a08201849052600160c0830181905260028054918201808255600091909152835160079092027f405787fa12a823e0f2b7631cc41b3ba8828b3321ca811111fa75cd3aa3bb5ace810192835594518051949591948694610c81937f405787fa12a823e0f2b7631cc41b3ba8828b3321ca811111fa75cd3aa3bb5acf0192019061162e565b5060408201518051610c9d91600284019160209091019061162e565b5060608201518051610cb991600384019160209091019061162e565b506080820151600482015560a082015160058083019190915560c0909201516006909101805460ff1916911515919091179055600a80546000908152602092909252604090912089905554610d10915060016115db565b600a5550505050505050565b600054600160a060020a03163314610d3357600080fd5b600c5460ff161515610b1157600160a060020a0381166000908152600760205260409020805460ff19166001908117909155600854610b0d9163ffffffff6115db16565b3360009081526007602052604090205460ff161515600114610d9857600080fd5b600c5460ff161515610b11576000600182815481101515610db557fe5b60009182526020909120600490910201600301805460ff191691151591909117905550565b60095481565b60085481565b6002805482908110610df457fe5b9060005260206000209060070201600091509050806000015490806001018054600181600116156101000203166002900480601f016020809104026020016040519081016040528092919081815260200182805460018160011615610100020316600290048015610ea65780601f10610e7b57610100808354040283529160200191610ea6565b820191906000526020600020905b815481529060010190602001808311610e8957829003601f168201915b50505060028085018054604080516020601f6000196101006001871615020190941695909504928301859004850281018501909152818152959695945090925090830182828015610f385780601f10610f0d57610100808354040283529160200191610f38565b820191906000526020600020905b815481529060010190602001808311610f1b57829003601f168201915b5050505060038301805460408051602060026001851615610100026000190190941693909304601f8101849004840282018401909252818152949594935090830182828015610fc85780601f10610f9d57610100808354040283529160200191610fc8565b820191906000526020600020905b815481529060010190602001808311610fab57829003601f168201915b50505050600483015460058401546006909401549293909290915060ff1687565b3360009081526007602052604090205460ff16151560011461100a57600080fd5b33600160a060020a03166003600060028981548110151561102757fe5b600091825260208083206007909202909101548352820192909252604001902054600160a060020a03161461105b57600080fd5b8460028781548110151561106b57fe5b9060005260206000209060070201600101908051906020019061108f92919061162e565b50836002878154811015156110a057fe5b906000526020600020906007020160020190805190602001906110c492919061162e565b50826002878154811015156110d557fe5b906000526020600020906007020160030190805190602001906110f992919061162e565b508160028781548110151561110a57fe5b9060005260206000209060070201600401819055508060028781548110151561112f57fe5b906000526020600020906007020160050181905550505050505050565b600c5460ff161515610b11576003600060028381548110151561116b57fe5b60009182526020808320600792909202909101548352820192909252604001902054600160a060020a03163314156111a257600080fd5b60028054829081106111b057fe5b906000526020600020906007020160040154341415156111cf57600080fd5b60006002828154811015156111e057fe5b9060005260206000209060070201600501541115156111fe57600080fd5b61128060028281548110151561121057fe5b906000526020600020906007020160040154600b60006003600060028781548110151561123957fe5b600091825260208083206007909202909101548352828101939093526040918201812054600160a060020a031684529183019390935291019020549063ffffffff6115db16565b600b60006003600060028681548110151561129757fe5b600091825260208083206007909202909101548352828101939093526040918201812054600160a060020a031684529183019390935291019020556002805461130791600191849081106112e757fe5b9060005260206000209060070201600501546115f190919063ffffffff16565b600280548390811061131557fe5b90600052602060002090600702016005018190555050565b600a5481565b600180548290811061134157fe5b60009182526020918290206004919091020180546040805160026001841615610100026000190190931692909204601f8101859004850283018501909152808252919350918391908301828280156113da5780601f106113af576101008083540402835291602001916113da565b820191906000526020600020905b8154815290600101906020018083116113bd57829003601f168201915b505050505090806001018054600181600116156101000203166002900480601f0160208091040260200160405190810160405280929190818152602001828054600181600116156101000203166002900480156114785780601f1061144d57610100808354040283529160200191611478565b820191906000526020600020905b81548152906001019060200180831161145b57829003601f168201915b50505060028085018054604080516020601f600019610100600187161502019094169590950492830185900485028101850190915281815295969594509092509083018282801561150a5780601f106114df5761010080835404028352916020019161150a565b820191906000526020600020905b8154815290600101906020018083116114ed57829003601f168201915b5050506003909301549192505060ff1684565b600054600160a060020a0316331461153457600080fd5b600160a060020a038116151561154957600080fd5b60008054604051600160a060020a03808516939216917f8be0079c531659141344cd1fd0a4f28419497f9722a3daafe3b4186f6b6457e091a36000805473ffffffffffffffffffffffffffffffffffffffff1916600160a060020a0392909216919091179055565b600360205260009081526040902054600160a060020a031681565b600654600160a060020a031681565b6000828201838110156115ea57fe5b9392505050565b6000828211156115fd57fe5b50900390565b6080604051908101604052806060815260200160608152602001606081526020016000151581525090565b828054600181600116156101000203166002900490600052602060002090601f016020900481019282601f1061166f57805160ff191683800117855561169c565b8280016001018555821561169c579182015b8281111561169c578251825591602001919060010190611681565b506116a89291506116ec565b5090565b60e0604051908101604052806000815260200160608152602001606081526020016060815260200160008152602001600081526020016000151581525090565b61170691905b808211156116a857600081556001016116f2565b905600a165627a7a7230582048a1bae8ebdc5abb84ba70d52698228214281adf9df125e96e6e77b90a40a1130029",
  "source": "pragma solidity ^0.4.0;\n\nimport \"zeppelin/contracts/math/SafeMath.sol\";\nimport \"zeppelin/contracts/ownership/Ownable.sol\";\n\ncontract Marketh is Ownable {\n\n    using SafeMath for uint;\n    \n    struct Item {\n        uint storeId;\n        string imageUrl;\n        string title;\n        string description;\n        uint price;\n        uint quantity;\n        bool active;\n    }\n    \n    struct Store {\n        string imageUrl;\n        string title;\n        string description;\n        bool active;\n    }\n\n    Store[] public stores;\n    \n    Item[] public items;\n    \n    mapping(uint => address) public storeToStoreOwner;\n    mapping(address => uint[]) public storeOwnerToStores;\n    \n    mapping(uint => uint) public itemToStore;\n\n    address public admin;\n\n    mapping(address => bool) public storeOwners;\n    \n    uint public storeOwnersCount;\n    uint public storesCount;\n    uint public itemsCount;\n    \n    mapping (address => uint) pendingWithdrawals;\n    //GETTER FOR PENDINGWITHDRAWALS!!\n\n    bool stopped; \n\n    constructor() public {\n        // CIRCUIT BREAKER\n        stopped = false;\n    }\n\n    function toggleContractActive() onlyOwner public {\n        stopped = !stopped;\n    }\n\n    // modifier onlyAdmin() {\n    //     require(msg.sender == admin);\n    //     _;\n    // }\n\n    // MODIFIER storeOwner\n    modifier onlyStoreOwner(){\n        require(storeOwners[msg.sender] == true);\n        _;\n    }\n\n    modifier stopInEmergency() {\n        if(!stopped) _;\n    }\n\n    modifier onlyInEmergency() {\n        if(stopped) _;\n    }\n\n    // FUNCTION addStoreOwner [ADMIN] PRIVATE\n    function addStoreOwner(address _recipient) public onlyOwner stopInEmergency{\n        storeOwners[_recipient] = true;\n        storeOwnersCount = storeOwnersCount.add(1);\n    }\n\n    // FUNCTION removeStoreOwner [ADMIN] PRIVATE\n    function removeStoreOwner(address _recipient) public onlyOwner stopInEmergency{\n        storeOwners[_recipient] = false;\n        storeOwnersCount = storeOwnersCount.sub(1);\n    }\n\n    // FUNCTION viewStoreOwners [ADMIN] PRIVATE\n\n    // FUNCTION addStore [STOREOWNER]\n    function addStore(string _imageUrl, string _title, string _description) public onlyStoreOwner stopInEmergency {\n        Store memory newStore = Store({\n            imageUrl: _imageUrl,\n            title: _title,\n            description: _description,\n            active: true\n        });\n        \n        storeToStoreOwner[storesCount] = msg.sender;\n        storeOwnerToStores[msg.sender].push(storesCount);\n\n        stores.push(newStore);\n\n        storesCount = storesCount.add(1);\n    }\n\n    // FUNCTION removeStore [STOREOWNER]\n    function removeStore(uint _storeId) public onlyStoreOwner stopInEmergency {\n        stores[_storeId].active = false;\n    }\n\n    // FUNCTION addItem [STOREOWNER]\n    function addItem(uint _storeId, string _imageUrl, string _title, string _description, uint _price, uint _quantity) public onlyStoreOwner {\n        require(storeToStoreOwner[_storeId] == msg.sender);\n\n        Item memory newItem = Item({\n            storeId: _storeId,\n            imageUrl: _imageUrl,\n            title: _title,\n            description: _description,\n            price: _price,\n            quantity: _quantity,\n            active: true\n        });\n\n        items.push(newItem);\n        \n        itemToStore[itemsCount] = _storeId;\n\n        itemsCount = itemsCount.add(1);\n     }\n\n    // FUNCTION removeItem [STOREOWNER]\n    function removeItem(uint _itemId) public onlyStoreOwner stopInEmergency {\n        items[_itemId].active = false;\n    }\n\n    // FUNCTION editItem [STOREOWNER]\n    function editItem(uint _itemId, string _imageUrl, string _title, string _description, uint _price, uint _quantity) public onlyStoreOwner {\n        require(storeToStoreOwner[items[_itemId].storeId] == msg.sender);\n\n        items[_itemId].imageUrl = _imageUrl;\n        items[_itemId].title = _title;\n        items[_itemId].description = _description;\n        items[_itemId].price = _price;\n        items[_itemId].quantity = _quantity;\n    }\n\n\n    // FUNCTION buyItem [STOREOWNER | BUYER] [CANNOT BUY FROM OWN STORE]\n    function buy(uint _itemId) public payable stopInEmergency {\n        require(msg.sender != storeToStoreOwner[items[_itemId].storeId]);\n        require(msg.value == items[_itemId].price);\n        require(items[_itemId].quantity > 0);\n        \n        pendingWithdrawals[storeToStoreOwner[items[_itemId].storeId]] =  pendingWithdrawals[storeToStoreOwner[items[_itemId].storeId]].add(items[_itemId].price);\n        items[_itemId].quantity = items[_itemId].quantity.sub(1);\n    }\n    \n\n    // FUNCTION withdraw\n    function withdraw() public {\n\n        \n        uint amount = pendingWithdrawals[msg.sender];\n        // Prevent re-entrancy attacks\n        pendingWithdrawals[msg.sender] = 0;\n        msg.sender.transfer(amount);\n    }\n\n}",
  "sourcePath": "/Users/willsputra/Desktop/projects/marketh/contracts/Marketh.sol",
  "compiler": {
    "name": "solc",
    "version": "0.4.24+commit.e67f0147.Emscripten.clang"
  },
  "schemaVersion": "2.0.1",
  "updatedAt": "2018-08-17T00:32:23.701Z"
}