{
  "contractName": "Marketh",
  "abi": [
    {
      "constant": true,
      "inputs": [
        {
          "name": "",
          "type": "address"
        }
      ],
      "name": "storeOwners",
      "outputs": [
        {
          "name": "",
          "type": "bool"
        }
      ],
      "payable": false,
      "stateMutability": "view",
      "type": "function"
    },
    {
      "constant": true,
      "inputs": [
        {
          "name": "",
          "type": "uint256"
        }
      ],
      "name": "itemToStore",
      "outputs": [
        {
          "name": "",
          "type": "uint256"
        }
      ],
      "payable": false,
      "stateMutability": "view",
      "type": "function"
    },
    {
      "constant": true,
      "inputs": [
        {
          "name": "",
          "type": "address"
        },
        {
          "name": "",
          "type": "uint256"
        }
      ],
      "name": "storeOwnerToStores",
      "outputs": [
        {
          "name": "",
          "type": "uint256"
        }
      ],
      "payable": false,
      "stateMutability": "view",
      "type": "function"
    },
    {
      "constant": true,
      "inputs": [],
      "name": "stopped",
      "outputs": [
        {
          "name": "",
          "type": "bool"
        }
      ],
      "payable": false,
      "stateMutability": "view",
      "type": "function"
    },
    {
      "constant": true,
      "inputs": [],
      "name": "owner",
      "outputs": [
        {
          "name": "",
          "type": "address"
        }
      ],
      "payable": false,
      "stateMutability": "view",
      "type": "function"
    },
    {
      "constant": true,
      "inputs": [
        {
          "name": "",
          "type": "address"
        },
        {
          "name": "",
          "type": "uint256"
        }
      ],
      "name": "addressToItems",
      "outputs": [
        {
          "name": "",
          "type": "uint256"
        }
      ],
      "payable": false,
      "stateMutability": "view",
      "type": "function"
    },
    {
      "constant": true,
      "inputs": [],
      "name": "storesCount",
      "outputs": [
        {
          "name": "",
          "type": "uint256"
        }
      ],
      "payable": false,
      "stateMutability": "view",
      "type": "function"
    },
    {
      "constant": true,
      "inputs": [],
      "name": "storeOwnersCount",
      "outputs": [
        {
          "name": "",
          "type": "uint256"
        }
      ],
      "payable": false,
      "stateMutability": "view",
      "type": "function"
    },
    {
      "constant": true,
      "inputs": [
        {
          "name": "",
          "type": "uint256"
        }
      ],
      "name": "items",
      "outputs": [
        {
          "name": "storeId",
          "type": "uint256"
        },
        {
          "name": "imageUrl",
          "type": "string"
        },
        {
          "name": "title",
          "type": "string"
        },
        {
          "name": "description",
          "type": "string"
        },
        {
          "name": "price",
          "type": "uint256"
        },
        {
          "name": "quantity",
          "type": "uint256"
        },
        {
          "name": "active",
          "type": "bool"
        }
      ],
      "payable": false,
      "stateMutability": "view",
      "type": "function"
    },
    {
      "constant": true,
      "inputs": [],
      "name": "itemsCount",
      "outputs": [
        {
          "name": "",
          "type": "uint256"
        }
      ],
      "payable": false,
      "stateMutability": "view",
      "type": "function"
    },
    {
      "constant": true,
      "inputs": [
        {
          "name": "",
          "type": "uint256"
        }
      ],
      "name": "stores",
      "outputs": [
        {
          "name": "imageUrl",
          "type": "string"
        },
        {
          "name": "title",
          "type": "string"
        },
        {
          "name": "description",
          "type": "string"
        },
        {
          "name": "active",
          "type": "bool"
        }
      ],
      "payable": false,
      "stateMutability": "view",
      "type": "function"
    },
    {
      "constant": false,
      "inputs": [
        {
          "name": "newOwner",
          "type": "address"
        }
      ],
      "name": "transferOwnership",
      "outputs": [],
      "payable": false,
      "stateMutability": "nonpayable",
      "type": "function"
    },
    {
      "constant": true,
      "inputs": [
        {
          "name": "",
          "type": "address"
        }
      ],
      "name": "pendingWithdrawals",
      "outputs": [
        {
          "name": "",
          "type": "uint256"
        }
      ],
      "payable": false,
      "stateMutability": "view",
      "type": "function"
    },
    {
      "constant": true,
      "inputs": [
        {
          "name": "",
          "type": "uint256"
        }
      ],
      "name": "storeToStoreOwner",
      "outputs": [
        {
          "name": "",
          "type": "address"
        }
      ],
      "payable": false,
      "stateMutability": "view",
      "type": "function"
    },
    {
      "inputs": [],
      "payable": false,
      "stateMutability": "nonpayable",
      "type": "constructor"
    },
    {
      "payable": true,
      "stateMutability": "payable",
      "type": "fallback"
    },
    {
      "anonymous": false,
      "inputs": [
        {
          "indexed": true,
          "name": "previousOwner",
          "type": "address"
        },
        {
          "indexed": true,
          "name": "newOwner",
          "type": "address"
        }
      ],
      "name": "OwnershipTransferred",
      "type": "event"
    },
    {
      "constant": false,
      "inputs": [],
      "name": "toggleContractActive",
      "outputs": [],
      "payable": false,
      "stateMutability": "nonpayable",
      "type": "function"
    },
    {
      "constant": false,
      "inputs": [],
      "name": "kill",
      "outputs": [],
      "payable": false,
      "stateMutability": "nonpayable",
      "type": "function"
    },
    {
      "constant": false,
      "inputs": [
        {
          "name": "_recipient",
          "type": "address"
        }
      ],
      "name": "addStoreOwner",
      "outputs": [],
      "payable": false,
      "stateMutability": "nonpayable",
      "type": "function"
    },
    {
      "constant": false,
      "inputs": [
        {
          "name": "_recipient",
          "type": "address"
        }
      ],
      "name": "removeStoreOwner",
      "outputs": [],
      "payable": false,
      "stateMutability": "nonpayable",
      "type": "function"
    },
    {
      "constant": false,
      "inputs": [
        {
          "name": "_imageUrl",
          "type": "string"
        },
        {
          "name": "_title",
          "type": "string"
        },
        {
          "name": "_description",
          "type": "string"
        }
      ],
      "name": "addStore",
      "outputs": [],
      "payable": false,
      "stateMutability": "nonpayable",
      "type": "function"
    },
    {
      "constant": false,
      "inputs": [
        {
          "name": "_storeId",
          "type": "uint256"
        }
      ],
      "name": "removeStore",
      "outputs": [],
      "payable": false,
      "stateMutability": "nonpayable",
      "type": "function"
    },
    {
      "constant": false,
      "inputs": [
        {
          "name": "_storeId",
          "type": "uint256"
        },
        {
          "name": "_imageUrl",
          "type": "string"
        },
        {
          "name": "_title",
          "type": "string"
        },
        {
          "name": "_description",
          "type": "string"
        },
        {
          "name": "_price",
          "type": "uint256"
        },
        {
          "name": "_quantity",
          "type": "uint256"
        }
      ],
      "name": "addItem",
      "outputs": [],
      "payable": false,
      "stateMutability": "nonpayable",
      "type": "function"
    },
    {
      "constant": false,
      "inputs": [
        {
          "name": "_itemId",
          "type": "uint256"
        }
      ],
      "name": "removeItem",
      "outputs": [],
      "payable": false,
      "stateMutability": "nonpayable",
      "type": "function"
    },
    {
      "constant": false,
      "inputs": [
        {
          "name": "_itemId",
          "type": "uint256"
        },
        {
          "name": "_imageUrl",
          "type": "string"
        },
        {
          "name": "_title",
          "type": "string"
        },
        {
          "name": "_description",
          "type": "string"
        },
        {
          "name": "_price",
          "type": "uint256"
        },
        {
          "name": "_quantity",
          "type": "uint256"
        }
      ],
      "name": "editItem",
      "outputs": [],
      "payable": false,
      "stateMutability": "nonpayable",
      "type": "function"
    },
    {
      "constant": false,
      "inputs": [
        {
          "name": "_itemId",
          "type": "uint256"
        }
      ],
      "name": "buy",
      "outputs": [],
      "payable": true,
      "stateMutability": "payable",
      "type": "function"
    },
    {
      "constant": false,
      "inputs": [],
      "name": "withdraw",
      "outputs": [],
      "payable": false,
      "stateMutability": "nonpayable",
      "type": "function"
    },
    {
      "constant": true,
      "inputs": [
        {
          "name": "_address",
          "type": "address"
        }
      ],
      "name": "getPurchaseHistory",
      "outputs": [
        {
          "name": "",
          "type": "uint256[]"
        }
      ],
      "payable": false,
      "stateMutability": "view",
      "type": "function"
    }
  ],
  "bytecode": "0x608060405234801561001057600080fd5b5060008054600160a060020a03191633179055600c805460ff19169055611c4d8061003c6000396000f3006080604052600436106101535763ffffffff7c0100000000000000000000000000000000000000000000000000000000600035041663057cc2a1811461015557806306dd79a81461018a5780631385d24c146101b45780631b486233146101c9578063210344441461029e578063339295221461030f5780633ccfd60b1461033357806341c0e1b5146103485780636174fdd11461035d578063713291711461037e57806375f12b21146103965780638da5cb5b146103ab578063940b6c18146103dc5780639adeb5f1146104bf5780639bc0432c146104e0578063a3323d62146104f8578063aa0cd2b81461051c578063b75fd88f14610531578063bfb231d214610546578063d5be1bc3146106c2578063d96a094a146107a5578063e2c03ace146107b0578063e8a59cd8146107c5578063f2fde38b14610929578063f3f437031461094a578063f4bf32001461096b575b005b34801561016157600080fd5b50610176600160a060020a0360043516610983565b604080519115158252519081900360200190f35b34801561019657600080fd5b506101a2600435610998565b60408051918252519081900360200190f35b3480156101c057600080fd5b506101536109aa565b3480156101d557600080fd5b506040805160206004803580820135601f810184900484028501840190955284845261015394369492936024939284019190819084018382808284375050604080516020601f89358b018035918201839004830284018301909452808352979a99988101979196509182019450925082915084018382808284375050604080516020601f89358b018035918201839004830284018301909452808352979a9998810197919650918201945092508291508401838280828437509497506109d59650505050505050565b3480156102aa57600080fd5b506102bf600160a060020a0360043516610b6c565b60408051602080825283518183015283519192839290830191858101910280838360005b838110156102fb5781810151838201526020016102e3565b505050509050019250505060405180910390f35b34801561031b57600080fd5b506101a2600160a060020a0360043516602435610bd8565b34801561033f57600080fd5b50610153610c08565b34801561035457600080fd5b50610153610c4d565b34801561036957600080fd5b50610153600160a060020a0360043516610c72565b34801561038a57600080fd5b50610153600435610cd0565b3480156103a257600080fd5b50610176610d6c565b3480156103b757600080fd5b506103c0610d75565b60408051600160a060020a039092168252519081900360200190f35b3480156103e857600080fd5b5060408051602060046024803582810135601f810185900485028601850190965285855261015395833595369560449491939091019190819084018382808284375050604080516020601f89358b018035918201839004830284018301909452808352979a99988101979196509182019450925082915084018382808284375050604080516020601f89358b018035918201839004830284018301909452808352979a999881019791965091820194509250829150840183828082843750949750508435955050506020909201359150610d849050565b3480156104cb57600080fd5b50610153600160a060020a0360043516610fc3565b3480156104ec57600080fd5b5061015360043561101e565b34801561050457600080fd5b506101a2600160a060020a03600435166024356110ba565b34801561052857600080fd5b506101a26110d5565b34801561053d57600080fd5b506101a26110db565b34801561055257600080fd5b5061055e6004356110e1565b604051808881526020018060200180602001806020018781526020018681526020018515151515815260200184810384528a818151815260200191508051906020019080838360005b838110156105bf5781810151838201526020016105a7565b50505050905090810190601f1680156105ec5780820380516001836020036101000a031916815260200191505b5084810383528951815289516020918201918b019080838360005b8381101561061f578181015183820152602001610607565b50505050905090810190601f16801561064c5780820380516001836020036101000a031916815260200191505b5084810382528851815288516020918201918a019080838360005b8381101561067f578181015183820152602001610667565b50505050905090810190601f1680156106ac5780820380516001836020036101000a031916815260200191505b509a505050505050505050505060405180910390f35b3480156106ce57600080fd5b5060408051602060046024803582810135601f810185900485028601850190965285855261015395833595369560449491939091019190819084018382808284375050604080516020601f89358b018035918201839004830284018301909452808352979a99988101979196509182019450925082915084018382808284375050604080516020601f89358b018035918201839004830284018301909452808352979a9998810197919650918201945092508291508401838280828437509497505084359550505060209092013591506112e49050565b6101536004356114f1565b3480156107bc57600080fd5b506101a2611822565b3480156107d157600080fd5b506107dd600435611828565b604080518215156060820152608080825286519082015285519091829160208084019284019160a08501918a019080838360005b83811015610829578181015183820152602001610811565b50505050905090810190601f1680156108565780820380516001836020036101000a031916815260200191505b50848103835287518152875160209182019189019080838360005b83811015610889578181015183820152602001610871565b50505050905090810190601f1680156108b65780820380516001836020036101000a031916815260200191505b50848103825286518152865160209182019188019080838360005b838110156108e95781810151838201526020016108d1565b50505050905090810190601f1680156109165780820380516001836020036101000a031916815260200191505b5097505050505050505060405180910390f35b34801561093557600080fd5b50610153600160a060020a0360043516611a12565b34801561095657600080fd5b506101a2600160a060020a0360043516611aa6565b34801561097757600080fd5b506103c0600435611ab8565b60076020526000908152604090205460ff1681565b60056020526000908152604090205481565b600054600160a060020a031633146109c157600080fd5b600c805460ff19811660ff90911615179055565b6109dd611afb565b3360009081526007602052604090205460ff161515600114610a37576040805160e560020a62461bcd02815260206004820152601a6024820152600080516020611c02833981519152604482015290519081900360640190fd5b600c5460ff161515610b66575060408051608081018252848152602080820185905281830184905260016060830181905260098054600090815260038452858120805473ffffffffffffffffffffffffffffffffffffffff191633908117909155815260048085529581209154825480850184559282528482209092019190915581548083018084559290915283518051949592948694929093027fb10e2d527612073b26eecdfd717e6a320cf44b4afac2b0732d9fcbe2b7fa0cf60192610b029284920190611b26565b506020828101518051610b1b9260018501920190611b26565b5060408201518051610b37916002840191602090910190611b26565b50606091909101516003909101805460ff191691151591909117905550600954610b62906001611ad3565b6009555b50505050565b600160a060020a038116600090815260066020908152604091829020805483518184028101840190945280845260609392830182828015610bcc57602002820191906000526020600020905b815481526020019060010190808311610bb8575b50505050509050919050565b600460205281600052604060002081815481101515610bf357fe5b90600052602060002001600091509150505481565b336000818152600b6020526040808220805490839055905190929183156108fc02918491818181858888f19350505050158015610c49573d6000803e3d6000fd5b5050565b600054600160a060020a03163314610c6457600080fd5b600054600160a060020a0316ff5b600054600160a060020a03163314610c8957600080fd5b600c5460ff161515610ccd57600160a060020a0381166000908152600760205260409020805460ff19169055600854610cc990600163ffffffff611ae916565b6008555b50565b3360009081526007602052604090205460ff161515600114610d2a576040805160e560020a62461bcd02815260206004820152601a6024820152600080516020611c02833981519152604482015290519081900360640190fd5b600c5460ff161515610ccd576000600282815481101515610d4757fe5b60009182526020909120600790910201600601805460ff191691151591909117905550565b600c5460ff1681565b600054600160a060020a031681565b610d8c611ba4565b3360009081526007602052604090205460ff161515600114610de6576040805160e560020a62461bcd02815260206004820152601a6024820152600080516020611c02833981519152604482015290519081900360640190fd5b600087815260036020526040902054600160a060020a03163314610e79576040805160e560020a62461bcd028152602060048201526024808201527f596f7520617265206e6f7420746865206f776e6572206f66207468697320737460448201527f6f72652e00000000000000000000000000000000000000000000000000000000606482015290519081900360840190fd5b506040805160e0810182528781526020808201888152928201879052606082018690526080820185905260a08201849052600160c0830181905260028054918201808255600091909152835160079092027f405787fa12a823e0f2b7631cc41b3ba8828b3321ca811111fa75cd3aa3bb5ace810192835594518051949591948694610f28937f405787fa12a823e0f2b7631cc41b3ba8828b3321ca811111fa75cd3aa3bb5acf01920190611b26565b5060408201518051610f44916002840191602090910190611b26565b5060608201518051610f60916003840191602090910190611b26565b506080820151600482015560a082015160058083019190915560c0909201516006909101805460ff1916911515919091179055600a80546000908152602092909252604090912089905554610fb791506001611ad3565b600a5550505050505050565b600054600160a060020a03163314610fda57600080fd5b600c5460ff161515610ccd57600160a060020a0381166000908152600760205260409020805460ff19166001908117909155600854610cc99163ffffffff611ad316565b3360009081526007602052604090205460ff161515600114611078576040805160e560020a62461bcd02815260206004820152601a6024820152600080516020611c02833981519152604482015290519081900360640190fd5b600c5460ff161515610ccd57600060018281548110151561109557fe5b60009182526020909120600490910201600301805460ff191691151591909117905550565b600660205281600052604060002081815481101515610bf357fe5b60095481565b60085481565b60028054829081106110ef57fe5b9060005260206000209060070201600091509050806000015490806001018054600181600116156101000203166002900480601f0160208091040260200160405190810160405280929190818152602001828054600181600116156101000203166002900480156111a15780601f10611176576101008083540402835291602001916111a1565b820191906000526020600020905b81548152906001019060200180831161118457829003601f168201915b50505060028085018054604080516020601f60001961010060018716150201909416959095049283018590048502810185019091528181529596959450909250908301828280156112335780601f1061120857610100808354040283529160200191611233565b820191906000526020600020905b81548152906001019060200180831161121657829003601f168201915b5050505060038301805460408051602060026001851615610100026000190190941693909304601f81018490048402820184019092528181529495949350908301828280156112c35780601f10611298576101008083540402835291602001916112c3565b820191906000526020600020905b8154815290600101906020018083116112a657829003601f168201915b50505050600483015460058401546006909401549293909290915060ff1687565b3360009081526007602052604090205460ff16151560011461133e576040805160e560020a62461bcd02815260206004820152601a6024820152600080516020611c02833981519152604482015290519081900360640190fd5b33600160a060020a03166003600060028981548110151561135b57fe5b600091825260208083206007909202909101548352820192909252604001902054600160a060020a031614611400576040805160e560020a62461bcd02815260206004820152602960248201527f596f7520617265206e6f74207468652073746f7265206f776e6572206f66207460448201527f686973206974656d2e0000000000000000000000000000000000000000000000606482015290519081900360840190fd5b8460028781548110151561141057fe5b90600052602060002090600702016001019080519060200190611434929190611b26565b508360028781548110151561144557fe5b90600052602060002090600702016002019080519060200190611469929190611b26565b508260028781548110151561147a57fe5b9060005260206000209060070201600301908051906020019061149e929190611b26565b50816002878154811015156114af57fe5b906000526020600020906007020160040181905550806002878154811015156114d457fe5b906000526020600020906007020160050181905550505050505050565b600c5460ff161515610ccd576003600060028381548110151561151057fe5b60009182526020808320600792909202909101548352820192909252604001902054600160a060020a03163314156115b8576040805160e560020a62461bcd02815260206004820152602660248201527f596f7520617265206e6f742061626c6520746f2062757920796f7572206f776e60448201527f206974656d2e0000000000000000000000000000000000000000000000000000606482015290519081900360840190fd5b60028054829081106115c657fe5b90600052602060002090600702016004015434141515611656576040805160e560020a62461bcd02815260206004820152602b60248201527f56616c7565207472616e73666572726564206973206e6f74207468652073616d60448201527f652061732070726963652e000000000000000000000000000000000000000000606482015290519081900360840190fd5b600060028281548110151561166757fe5b9060005260206000209060070201600501541115156116d0576040805160e560020a62461bcd02815260206004820152601660248201527f54686973206974656d20697320736f6c64206f75742e00000000000000000000604482015290519081900360640190fd5b336000908152600660209081526040822080546001810182559083529120018190556002805461177591908390811061170557fe5b906000526020600020906007020160040154600b60006003600060028781548110151561172e57fe5b600091825260208083206007909202909101548352828101939093526040918201812054600160a060020a031684529183019390935291019020549063ffffffff611ad316565b600b60006003600060028681548110151561178c57fe5b600091825260208083206007909202909101548352828101939093526040918201812054600160a060020a03168452918301939093529101902055600280546117fc91600191849081106117dc57fe5b906000526020600020906007020160050154611ae990919063ffffffff16565b600280548390811061180a57fe5b90600052602060002090600702016005018190555050565b600a5481565b600180548290811061183657fe5b60009182526020918290206004919091020180546040805160026001841615610100026000190190931692909204601f8101859004850283018501909152808252919350918391908301828280156118cf5780601f106118a4576101008083540402835291602001916118cf565b820191906000526020600020905b8154815290600101906020018083116118b257829003601f168201915b505050505090806001018054600181600116156101000203166002900480601f01602080910402602001604051908101604052809291908181526020018280546001816001161561010002031660029004801561196d5780601f106119425761010080835404028352916020019161196d565b820191906000526020600020905b81548152906001019060200180831161195057829003601f168201915b50505060028085018054604080516020601f60001961010060018716150201909416959095049283018590048502810185019091528181529596959450909250908301828280156119ff5780601f106119d4576101008083540402835291602001916119ff565b820191906000526020600020905b8154815290600101906020018083116119e257829003601f168201915b5050506003909301549192505060ff1684565b600054600160a060020a03163314611a2957600080fd5b600160a060020a0381161515611a3e57600080fd5b60008054604051600160a060020a03808516939216917f8be0079c531659141344cd1fd0a4f28419497f9722a3daafe3b4186f6b6457e091a36000805473ffffffffffffffffffffffffffffffffffffffff1916600160a060020a0392909216919091179055565b600b6020526000908152604090205481565b600360205260009081526040902054600160a060020a031681565b600082820183811015611ae257fe5b9392505050565b600082821115611af557fe5b50900390565b6080604051908101604052806060815260200160608152602001606081526020016000151581525090565b828054600181600116156101000203166002900490600052602060002090601f016020900481019282601f10611b6757805160ff1916838001178555611b94565b82800160010185558215611b94579182015b82811115611b94578251825591602001919060010190611b79565b50611ba0929150611be4565b5090565b60e0604051908101604052806000815260200160608152602001606081526020016060815260200160008152602001600081526020016000151581525090565b611bfe91905b80821115611ba05760008155600101611bea565b905600596f7520617265206e6f7420612073746f7265206f776e65722e000000000000a165627a7a72305820826e40cf5451308234f53995270db7a8500ab5c62dffcae683f57b76010db2960029",
  "source": "pragma solidity ^0.4.22;\n\n/** @dev Uses Zeppelin from EthPM (see installed_contracts) */\nimport \"zeppelin/contracts/math/SafeMath.sol\";\nimport \"zeppelin/contracts/ownership/Ownable.sol\";\n\n/** @title Marketh */\ncontract Marketh is Ownable {\n\n    using SafeMath for uint;\n    \n    struct Item {\n        uint storeId;\n        string imageUrl;\n        string title;\n        string description;\n        uint price;\n        uint quantity;\n        bool active;\n    }\n    \n    struct Store {\n        string imageUrl;\n        string title;\n        string description;\n        bool active;\n    }\n\n    Store[] public stores;\n    \n    Item[] public items;\n    \n    mapping(uint => address) public storeToStoreOwner;\n    mapping(address => uint[]) public storeOwnerToStores;\n    \n    mapping(uint => uint) public itemToStore;\n\n    mapping(address => uint[]) public addressToItems;\n\n    mapping(address => bool) public storeOwners;\n    \n    uint public storeOwnersCount;\n    uint public storesCount;\n    uint public itemsCount;\n    \n    mapping (address => uint) public pendingWithdrawals;\n\n    bool public stopped; \n\n    /** @dev Initialize CIRCUIT BREAKER */\n    constructor() public {\n        stopped = false;\n    }\n\n    /** @dev CIRCUIT BREAKER: Allows owner to deactivate the contract */\n    function toggleContractActive() public onlyOwner {\n        stopped = !stopped;\n    }\n\n    modifier stopInEmergency() {\n        if(!stopped) _;\n    }\n\n    modifier onlyInEmergency() {\n        if(stopped) _;\n    }\n\n\n    modifier onlyStoreOwner(){\n        require(storeOwners[msg.sender] == true, \"You are not a store owner.\");\n        _;\n    }\n\n    function kill() public onlyOwner {\n        selfdestruct(owner);\n    }\n\n    /** @dev Adds an address as a Store Owner.\n      * @param _recipient Address of the Store Owner.\n      */       \n    function addStoreOwner(address _recipient) public onlyOwner stopInEmergency{\n        storeOwners[_recipient] = true;\n        storeOwnersCount = storeOwnersCount.add(1);\n    }\n\n    /** @dev Removes a Store Owner.\n      * @param _recipient Address of the Store Owner.\n      */    \n    function removeStoreOwner(address _recipient) public onlyOwner stopInEmergency{\n        storeOwners[_recipient] = false;\n        storeOwnersCount = storeOwnersCount.sub(1);\n    }\n\n    /** @dev Adds a Store.\n      * @param _imageUrl Image URL of the Store\n      * @param _title Title of the Store\n      * @param _description Description of the Store\n      */    \n    function addStore(string _imageUrl, string _title, string _description) public onlyStoreOwner stopInEmergency {\n        Store memory newStore = Store({\n            imageUrl: _imageUrl,\n            title: _title,\n            description: _description,\n            active: true\n        });\n        \n        storeToStoreOwner[storesCount] = msg.sender;\n        storeOwnerToStores[msg.sender].push(storesCount);\n\n        stores.push(newStore);\n\n        storesCount = storesCount.add(1);\n    }\n\n    /** @dev Removes a Store.\n      * @param _storeId ID of the Store (index in stores array)\n      */ \n    function removeStore(uint _storeId) public onlyStoreOwner stopInEmergency {\n        stores[_storeId].active = false;\n    }\n\n    /** @dev Adds an Item.\n      * @param _storeId ID of the Store (index in stores array)\n      * @param _imageUrl Image URL of the Item\n      * @param _title Title of the Item\n      * @param _description Description of the Item\n      * @param _price Price of the Item\n      * @param _quantity Quantity of the Item\n      */    \n    function addItem(uint _storeId, string _imageUrl, string _title, string _description, uint _price, uint _quantity) public onlyStoreOwner {\n        require(storeToStoreOwner[_storeId] == msg.sender, \"You are not the owner of this store.\");\n\n        Item memory newItem = Item({\n            storeId: _storeId,\n            imageUrl: _imageUrl,\n            title: _title,\n            description: _description,\n            price: _price,\n            quantity: _quantity,\n            active: true\n        });\n\n        items.push(newItem);\n        \n        itemToStore[itemsCount] = _storeId;\n\n        itemsCount = itemsCount.add(1);\n    }\n\n    /** @dev Removes an Item.\n      * @param _itemId ID of the Item (index in items array)\n      */ \n    function removeItem(uint _itemId) public onlyStoreOwner stopInEmergency {\n        items[_itemId].active = false;\n    }\n\n    /** @dev Edits an Item.\n      * @param _itemId ID of the Item (index in items array)\n      * @param _imageUrl Image URL of the Item (new)\n      * @param _title Title of the Item (new)\n      * @param _description Description of the Item (new)\n      * @param _price Price of the Item (new)\n      * @param _quantity Quantity of the Item (new)\n      */   \n    function editItem(uint _itemId, string _imageUrl, string _title, string _description, uint _price, uint _quantity) public onlyStoreOwner {\n        require(storeToStoreOwner[items[_itemId].storeId] == msg.sender, \"You are not the store owner of this item.\");\n\n        items[_itemId].imageUrl = _imageUrl;\n        items[_itemId].title = _title;\n        items[_itemId].description = _description;\n        items[_itemId].price = _price;\n        items[_itemId].quantity = _quantity;\n    }\n\n\n    /** @dev Buys an Item.\n      * @param _itemId ID of the Item (index in items array)\n      */   \n    function buy(uint _itemId) public payable stopInEmergency {\n        require(msg.sender != storeToStoreOwner[items[_itemId].storeId], \"You are not able to buy your own item.\");\n        require(msg.value == items[_itemId].price, \"Value transferred is not the same as price.\");\n        require(items[_itemId].quantity > 0, \"This item is sold out.\");\n        \n        addressToItems[msg.sender].push(_itemId);\n        \n        pendingWithdrawals[storeToStoreOwner[items[_itemId].storeId]] = pendingWithdrawals[storeToStoreOwner[items[_itemId].storeId]]\n        .add(items[_itemId].price);\n        items[_itemId].quantity = items[_itemId].quantity.sub(1);\n    }\n    \n    /** @dev Withdraws the balance.\n      */   \n    function withdraw() public {\n        uint amount = pendingWithdrawals[msg.sender];\n        // Prevent re-entrancy attacks\n        pendingWithdrawals[msg.sender] = 0;\n        msg.sender.transfer(amount);\n    }\n\n    /**@dev Get purchase history of an address.\n     * @param _address Address of the buyer\n     */\n    function getPurchaseHistory(address _address) public view returns (uint[]){\n        return addressToItems[_address];\n    }\n\n    /** @dev Fallback function.\n     */\n    function() external payable {\n\n    }\n\n}",
  "sourcePath": "/Users/willsputra/Desktop/projects/marketh/contracts/Marketh.sol",
  "compiler": {
    "name": "solc",
    "version": "0.4.24+commit.e67f0147.Emscripten.clang"
  },
  "schemaVersion": "2.0.1",
  "updatedAt": "2018-08-26T22:30:54.075Z"
}