{
  "contractName": "Marketh",
  "abi": [
    {
      "constant": true,
      "inputs": [
        {
          "name": "",
          "type": "address"
        }
      ],
      "name": "storeOwners",
      "outputs": [
        {
          "name": "",
          "type": "bool"
        }
      ],
      "payable": false,
      "stateMutability": "view",
      "type": "function"
    },
    {
      "constant": true,
      "inputs": [
        {
          "name": "",
          "type": "uint256"
        }
      ],
      "name": "itemToStore",
      "outputs": [
        {
          "name": "",
          "type": "uint256"
        }
      ],
      "payable": false,
      "stateMutability": "view",
      "type": "function"
    },
    {
      "constant": true,
      "inputs": [
        {
          "name": "",
          "type": "address"
        },
        {
          "name": "",
          "type": "uint256"
        }
      ],
      "name": "storeOwnerToStores",
      "outputs": [
        {
          "name": "",
          "type": "uint256"
        }
      ],
      "payable": false,
      "stateMutability": "view",
      "type": "function"
    },
    {
      "constant": true,
      "inputs": [],
      "name": "owner",
      "outputs": [
        {
          "name": "",
          "type": "address"
        }
      ],
      "payable": false,
      "stateMutability": "view",
      "type": "function"
    },
    {
      "constant": true,
      "inputs": [],
      "name": "storesCount",
      "outputs": [
        {
          "name": "",
          "type": "uint256"
        }
      ],
      "payable": false,
      "stateMutability": "view",
      "type": "function"
    },
    {
      "constant": true,
      "inputs": [],
      "name": "storeOwnersCount",
      "outputs": [
        {
          "name": "",
          "type": "uint256"
        }
      ],
      "payable": false,
      "stateMutability": "view",
      "type": "function"
    },
    {
      "constant": true,
      "inputs": [
        {
          "name": "",
          "type": "uint256"
        }
      ],
      "name": "items",
      "outputs": [
        {
          "name": "storeId",
          "type": "uint256"
        },
        {
          "name": "imageUrl",
          "type": "string"
        },
        {
          "name": "title",
          "type": "string"
        },
        {
          "name": "description",
          "type": "string"
        },
        {
          "name": "price",
          "type": "uint256"
        },
        {
          "name": "quantity",
          "type": "uint256"
        },
        {
          "name": "active",
          "type": "bool"
        }
      ],
      "payable": false,
      "stateMutability": "view",
      "type": "function"
    },
    {
      "constant": true,
      "inputs": [],
      "name": "itemsCount",
      "outputs": [
        {
          "name": "",
          "type": "uint256"
        }
      ],
      "payable": false,
      "stateMutability": "view",
      "type": "function"
    },
    {
      "constant": true,
      "inputs": [
        {
          "name": "",
          "type": "uint256"
        }
      ],
      "name": "stores",
      "outputs": [
        {
          "name": "imageUrl",
          "type": "string"
        },
        {
          "name": "title",
          "type": "string"
        },
        {
          "name": "description",
          "type": "string"
        },
        {
          "name": "active",
          "type": "bool"
        }
      ],
      "payable": false,
      "stateMutability": "view",
      "type": "function"
    },
    {
      "constant": false,
      "inputs": [
        {
          "name": "newOwner",
          "type": "address"
        }
      ],
      "name": "transferOwnership",
      "outputs": [],
      "payable": false,
      "stateMutability": "nonpayable",
      "type": "function"
    },
    {
      "constant": true,
      "inputs": [
        {
          "name": "",
          "type": "uint256"
        }
      ],
      "name": "storeToStoreOwner",
      "outputs": [
        {
          "name": "",
          "type": "address"
        }
      ],
      "payable": false,
      "stateMutability": "view",
      "type": "function"
    },
    {
      "inputs": [],
      "payable": false,
      "stateMutability": "nonpayable",
      "type": "constructor"
    },
    {
      "anonymous": false,
      "inputs": [
        {
          "indexed": true,
          "name": "previousOwner",
          "type": "address"
        },
        {
          "indexed": true,
          "name": "newOwner",
          "type": "address"
        }
      ],
      "name": "OwnershipTransferred",
      "type": "event"
    },
    {
      "constant": false,
      "inputs": [],
      "name": "toggleContractActive",
      "outputs": [],
      "payable": false,
      "stateMutability": "nonpayable",
      "type": "function"
    },
    {
      "constant": false,
      "inputs": [
        {
          "name": "_recipient",
          "type": "address"
        }
      ],
      "name": "addStoreOwner",
      "outputs": [],
      "payable": false,
      "stateMutability": "nonpayable",
      "type": "function"
    },
    {
      "constant": false,
      "inputs": [
        {
          "name": "_recipient",
          "type": "address"
        }
      ],
      "name": "removeStoreOwner",
      "outputs": [],
      "payable": false,
      "stateMutability": "nonpayable",
      "type": "function"
    },
    {
      "constant": false,
      "inputs": [
        {
          "name": "_imageUrl",
          "type": "string"
        },
        {
          "name": "_title",
          "type": "string"
        },
        {
          "name": "_description",
          "type": "string"
        }
      ],
      "name": "addStore",
      "outputs": [],
      "payable": false,
      "stateMutability": "nonpayable",
      "type": "function"
    },
    {
      "constant": false,
      "inputs": [
        {
          "name": "_storeId",
          "type": "uint256"
        }
      ],
      "name": "removeStore",
      "outputs": [],
      "payable": false,
      "stateMutability": "nonpayable",
      "type": "function"
    },
    {
      "constant": false,
      "inputs": [
        {
          "name": "_storeId",
          "type": "uint256"
        },
        {
          "name": "_imageUrl",
          "type": "string"
        },
        {
          "name": "_title",
          "type": "string"
        },
        {
          "name": "_description",
          "type": "string"
        },
        {
          "name": "_price",
          "type": "uint256"
        },
        {
          "name": "_quantity",
          "type": "uint256"
        }
      ],
      "name": "addItem",
      "outputs": [],
      "payable": false,
      "stateMutability": "nonpayable",
      "type": "function"
    },
    {
      "constant": false,
      "inputs": [
        {
          "name": "_itemId",
          "type": "uint256"
        }
      ],
      "name": "removeItem",
      "outputs": [],
      "payable": false,
      "stateMutability": "nonpayable",
      "type": "function"
    },
    {
      "constant": false,
      "inputs": [
        {
          "name": "_itemId",
          "type": "uint256"
        },
        {
          "name": "_imageUrl",
          "type": "string"
        },
        {
          "name": "_title",
          "type": "string"
        },
        {
          "name": "_description",
          "type": "string"
        },
        {
          "name": "_price",
          "type": "uint256"
        },
        {
          "name": "_quantity",
          "type": "uint256"
        }
      ],
      "name": "editItem",
      "outputs": [],
      "payable": false,
      "stateMutability": "nonpayable",
      "type": "function"
    },
    {
      "constant": false,
      "inputs": [
        {
          "name": "_itemId",
          "type": "uint256"
        }
      ],
      "name": "buy",
      "outputs": [],
      "payable": true,
      "stateMutability": "payable",
      "type": "function"
    },
    {
      "constant": false,
      "inputs": [],
      "name": "withdraw",
      "outputs": [],
      "payable": false,
      "stateMutability": "nonpayable",
      "type": "function"
    }
  ],
  "bytecode": "0x608060405234801561001057600080fd5b5060008054600160a060020a03191633179055600b805460ff191690556117068061003c6000396000f30060806040526004361061011c5763ffffffff7c0100000000000000000000000000000000000000000000000000000000600035041663057cc2a1811461012157806306dd79a8146101565780631385d24c146101805780631b48623314610197578063339295221461026c5780633ccfd60b146102905780636174fdd1146102a557806371329171146102c65780638da5cb5b146102de578063940b6c181461030f5780639adeb5f1146103f25780639bc0432c14610413578063aa0cd2b81461042b578063b75fd88f14610440578063bfb231d214610455578063d5be1bc3146105d1578063d96a094a146106b4578063e2c03ace146106bf578063e8a59cd8146106d4578063f2fde38b14610838578063f4bf320014610859575b600080fd5b34801561012d57600080fd5b50610142600160a060020a0360043516610871565b604080519115158252519081900360200190f35b34801561016257600080fd5b5061016e600435610886565b60408051918252519081900360200190f35b34801561018c57600080fd5b50610195610898565b005b3480156101a357600080fd5b506040805160206004803580820135601f810184900484028501840190955284845261019594369492936024939284019190819084018382808284375050604080516020601f89358b018035918201839004830284018301909452808352979a99988101979196509182019450925082915084018382808284375050604080516020601f89358b018035918201839004830284018301909452808352979a9998810197919650918201945092508291508401838280828437509497506108c39650505050505050565b34801561027857600080fd5b5061016e600160a060020a0360043516602435610a21565b34801561029c57600080fd5b50610195610a51565b3480156102b157600080fd5b50610195600160a060020a0360043516610a96565b3480156102d257600080fd5b50610195600435610af4565b3480156102ea57600080fd5b506102f3610b57565b60408051600160a060020a039092168252519081900360200190f35b34801561031b57600080fd5b5060408051602060046024803582810135601f810185900485028601850190965285855261019595833595369560449491939091019190819084018382808284375050604080516020601f89358b018035918201839004830284018301909452808352979a99988101979196509182019450925082915084018382808284375050604080516020601f89358b018035918201839004830284018301909452808352979a999881019791965091820194509250829150840183828082843750949750508435955050506020909201359150610b669050565b3480156103fe57600080fd5b50610195600160a060020a0360043516610cfc565b34801561041f57600080fd5b50610195600435610d57565b34801561043757600080fd5b5061016e610dba565b34801561044c57600080fd5b5061016e610dc0565b34801561046157600080fd5b5061046d600435610dc6565b604051808881526020018060200180602001806020018781526020018681526020018515151515815260200184810384528a818151815260200191508051906020019080838360005b838110156104ce5781810151838201526020016104b6565b50505050905090810190601f1680156104fb5780820380516001836020036101000a031916815260200191505b5084810383528951815289516020918201918b019080838360005b8381101561052e578181015183820152602001610516565b50505050905090810190601f16801561055b5780820380516001836020036101000a031916815260200191505b5084810382528851815288516020918201918a019080838360005b8381101561058e578181015183820152602001610576565b50505050905090810190601f1680156105bb5780820380516001836020036101000a031916815260200191505b509a505050505050505050505060405180910390f35b3480156105dd57600080fd5b5060408051602060046024803582810135601f810185900485028601850190965285855261019595833595369560449491939091019190819084018382808284375050604080516020601f89358b018035918201839004830284018301909452808352979a99988101979196509182019450925082915084018382808284375050604080516020601f89358b018035918201839004830284018301909452808352979a999881019791965091820194509250829150840183828082843750949750508435955050506020909201359150610fc99050565b61019560043561112c565b3480156106cb57600080fd5b5061016e61130d565b3480156106e057600080fd5b506106ec600435611313565b604080518215156060820152608080825286519082015285519091829160208084019284019160a08501918a019080838360005b83811015610738578181015183820152602001610720565b50505050905090810190601f1680156107655780820380516001836020036101000a031916815260200191505b50848103835287518152875160209182019189019080838360005b83811015610798578181015183820152602001610780565b50505050905090810190601f1680156107c55780820380516001836020036101000a031916815260200191505b50848103825286518152865160209182019188019080838360005b838110156107f85781810151838201526020016107e0565b50505050905090810190601f1680156108255780820380516001836020036101000a031916815260200191505b5097505050505050505060405180910390f35b34801561084457600080fd5b50610195600160a060020a03600435166114fd565b34801561086557600080fd5b506102f3600435611591565b60066020526000908152604090205460ff1681565b60056020526000908152604090205481565b600054600160a060020a031633146108af57600080fd5b600b805460ff19811660ff90911615179055565b6108cb6115d4565b3360009081526006602052604090205460ff1615156001146108ec57600080fd5b600b5460ff161515610a1b575060408051608081018252848152602080820185905281830184905260016060830181905260088054600090815260038452858120805473ffffffffffffffffffffffffffffffffffffffff191633908117909155815260048085529581209154825480850184559282528482209092019190915581548083018084559290915283518051949592948694929093027fb10e2d527612073b26eecdfd717e6a320cf44b4afac2b0732d9fcbe2b7fa0cf601926109b792849201906115ff565b5060208281015180516109d092600185019201906115ff565b50604082015180516109ec9160028401916020909101906115ff565b50606091909101516003909101805460ff191691151591909117905550600854610a179060016115ac565b6008555b50505050565b600460205281600052604060002081815481101515610a3c57fe5b90600052602060002001600091509150505481565b336000818152600a6020526040808220805490839055905190929183156108fc02918491818181858888f19350505050158015610a92573d6000803e3d6000fd5b5050565b600054600160a060020a03163314610aad57600080fd5b600b5460ff161515610af157600160a060020a0381166000908152600660205260409020805460ff19169055600754610aed90600163ffffffff6115c216565b6007555b50565b3360009081526006602052604090205460ff161515600114610b1557600080fd5b600b5460ff161515610af1576000600282815481101515610b3257fe5b60009182526020909120600790910201600601805460ff191691151591909117905550565b600054600160a060020a031681565b610b6e61167d565b3360009081526006602052604090205460ff161515600114610b8f57600080fd5b600087815260036020526040902054600160a060020a03163314610bb257600080fd5b506040805160e0810182528781526020808201888152928201879052606082018690526080820185905260a08201849052600160c0830181905260028054918201808255600091909152835160079092027f405787fa12a823e0f2b7631cc41b3ba8828b3321ca811111fa75cd3aa3bb5ace810192835594518051949591948694610c61937f405787fa12a823e0f2b7631cc41b3ba8828b3321ca811111fa75cd3aa3bb5acf019201906115ff565b5060408201518051610c7d9160028401916020909101906115ff565b5060608201518051610c999160038401916020909101906115ff565b506080820151600482015560a082015160058083019190915560c0909201516006909101805460ff1916911515919091179055600980546000908152602092909252604090912089905554610cf0915060016115ac565b60095550505050505050565b600054600160a060020a03163314610d1357600080fd5b600b5460ff161515610af157600160a060020a0381166000908152600660205260409020805460ff19166001908117909155600754610aed9163ffffffff6115ac16565b3360009081526006602052604090205460ff161515600114610d7857600080fd5b600b5460ff161515610af1576000600182815481101515610d9557fe5b60009182526020909120600490910201600301805460ff191691151591909117905550565b60085481565b60075481565b6002805482908110610dd457fe5b9060005260206000209060070201600091509050806000015490806001018054600181600116156101000203166002900480601f016020809104026020016040519081016040528092919081815260200182805460018160011615610100020316600290048015610e865780601f10610e5b57610100808354040283529160200191610e86565b820191906000526020600020905b815481529060010190602001808311610e6957829003601f168201915b50505060028085018054604080516020601f6000196101006001871615020190941695909504928301859004850281018501909152818152959695945090925090830182828015610f185780601f10610eed57610100808354040283529160200191610f18565b820191906000526020600020905b815481529060010190602001808311610efb57829003601f168201915b5050505060038301805460408051602060026001851615610100026000190190941693909304601f8101849004840282018401909252818152949594935090830182828015610fa85780601f10610f7d57610100808354040283529160200191610fa8565b820191906000526020600020905b815481529060010190602001808311610f8b57829003601f168201915b50505050600483015460058401546006909401549293909290915060ff1687565b3360009081526006602052604090205460ff161515600114610fea57600080fd5b33600160a060020a03166003600060028981548110151561100757fe5b600091825260208083206007909202909101548352820192909252604001902054600160a060020a03161461103b57600080fd5b8460028781548110151561104b57fe5b9060005260206000209060070201600101908051906020019061106f9291906115ff565b508360028781548110151561108057fe5b906000526020600020906007020160020190805190602001906110a49291906115ff565b50826002878154811015156110b557fe5b906000526020600020906007020160030190805190602001906110d99291906115ff565b50816002878154811015156110ea57fe5b9060005260206000209060070201600401819055508060028781548110151561110f57fe5b906000526020600020906007020160050181905550505050505050565b600b5460ff161515610af1576003600060028381548110151561114b57fe5b60009182526020808320600792909202909101548352820192909252604001902054600160a060020a031633141561118257600080fd5b600280548290811061119057fe5b906000526020600020906007020160040154341415156111af57600080fd5b60006002828154811015156111c057fe5b9060005260206000209060070201600501541115156111de57600080fd5b6112606002828154811015156111f057fe5b906000526020600020906007020160040154600a60006003600060028781548110151561121957fe5b600091825260208083206007909202909101548352828101939093526040918201812054600160a060020a031684529183019390935291019020549063ffffffff6115ac16565b600a60006003600060028681548110151561127757fe5b600091825260208083206007909202909101548352828101939093526040918201812054600160a060020a03168452918301939093529101902055600280546112e791600191849081106112c757fe5b9060005260206000209060070201600501546115c290919063ffffffff16565b60028054839081106112f557fe5b90600052602060002090600702016005018190555050565b60095481565b600180548290811061132157fe5b60009182526020918290206004919091020180546040805160026001841615610100026000190190931692909204601f8101859004850283018501909152808252919350918391908301828280156113ba5780601f1061138f576101008083540402835291602001916113ba565b820191906000526020600020905b81548152906001019060200180831161139d57829003601f168201915b505050505090806001018054600181600116156101000203166002900480601f0160208091040260200160405190810160405280929190818152602001828054600181600116156101000203166002900480156114585780601f1061142d57610100808354040283529160200191611458565b820191906000526020600020905b81548152906001019060200180831161143b57829003601f168201915b50505060028085018054604080516020601f60001961010060018716150201909416959095049283018590048502810185019091528181529596959450909250908301828280156114ea5780601f106114bf576101008083540402835291602001916114ea565b820191906000526020600020905b8154815290600101906020018083116114cd57829003601f168201915b5050506003909301549192505060ff1684565b600054600160a060020a0316331461151457600080fd5b600160a060020a038116151561152957600080fd5b60008054604051600160a060020a03808516939216917f8be0079c531659141344cd1fd0a4f28419497f9722a3daafe3b4186f6b6457e091a36000805473ffffffffffffffffffffffffffffffffffffffff1916600160a060020a0392909216919091179055565b600360205260009081526040902054600160a060020a031681565b6000828201838110156115bb57fe5b9392505050565b6000828211156115ce57fe5b50900390565b6080604051908101604052806060815260200160608152602001606081526020016000151581525090565b828054600181600116156101000203166002900490600052602060002090601f016020900481019282601f1061164057805160ff191683800117855561166d565b8280016001018555821561166d579182015b8281111561166d578251825591602001919060010190611652565b506116799291506116bd565b5090565b60e0604051908101604052806000815260200160608152602001606081526020016060815260200160008152602001600081526020016000151581525090565b6116d791905b8082111561167957600081556001016116c3565b905600a165627a7a72305820d1430c6fb5f20735cc9938894b9de44434b346f756493597b694193587deaaae0029",
  "source": "pragma solidity ^0.4.0;\n\nimport \"zeppelin/contracts/math/SafeMath.sol\";\nimport \"zeppelin/contracts/ownership/Ownable.sol\";\n\ncontract Marketh is Ownable {\n\n    using SafeMath for uint;\n    \n    struct Item {\n        uint storeId;\n        string imageUrl;\n        string title;\n        string description;\n        uint price;\n        uint quantity;\n        bool active;\n    }\n    \n    struct Store {\n        string imageUrl;\n        string title;\n        string description;\n        bool active;\n    }\n\n    Store[] public stores;\n    \n    Item[] public items;\n    \n    mapping(uint => address) public storeToStoreOwner;\n    mapping(address => uint[]) public storeOwnerToStores;\n    \n    mapping(uint => uint) public itemToStore;\n\n    mapping(address => bool) public storeOwners;\n    \n    uint public storeOwnersCount;\n    uint public storesCount;\n    uint public itemsCount;\n    \n    mapping (address => uint) pendingWithdrawals;\n    //GETTER FOR PENDINGWITHDRAWALS!!\n\n    bool stopped; \n\n    constructor() public {\n        // CIRCUIT BREAKER\n        stopped = false;\n    }\n\n    function toggleContractActive() onlyOwner public {\n        stopped = !stopped;\n    }\n\n\n    // MODIFIER storeOwner\n    modifier onlyStoreOwner(){\n        require(storeOwners[msg.sender] == true);\n        _;\n    }\n\n    modifier stopInEmergency() {\n        if(!stopped) _;\n    }\n\n    modifier onlyInEmergency() {\n        if(stopped) _;\n    }\n\n    // FUNCTION addStoreOwner [OWNER] PRIVATE\n    function addStoreOwner(address _recipient) public onlyOwner stopInEmergency{\n        storeOwners[_recipient] = true;\n        storeOwnersCount = storeOwnersCount.add(1);\n    }\n\n    // FUNCTION removeStoreOwner [OWNER] PRIVATE\n    function removeStoreOwner(address _recipient) public onlyOwner stopInEmergency{\n        storeOwners[_recipient] = false;\n        storeOwnersCount = storeOwnersCount.sub(1);\n    }\n\n    // FUNCTION viewStoreOwners [OWNER] PRIVATE\n\n    // FUNCTION addStore [STOREOWNER]\n    function addStore(string _imageUrl, string _title, string _description) public onlyStoreOwner stopInEmergency {\n        Store memory newStore = Store({\n            imageUrl: _imageUrl,\n            title: _title,\n            description: _description,\n            active: true\n        });\n        \n        storeToStoreOwner[storesCount] = msg.sender;\n        storeOwnerToStores[msg.sender].push(storesCount);\n\n        stores.push(newStore);\n\n        storesCount = storesCount.add(1);\n    }\n\n    // FUNCTION removeStore [STOREOWNER]\n    function removeStore(uint _storeId) public onlyStoreOwner stopInEmergency {\n        stores[_storeId].active = false;\n    }\n\n    // FUNCTION addItem [STOREOWNER]\n    function addItem(uint _storeId, string _imageUrl, string _title, string _description, uint _price, uint _quantity) public onlyStoreOwner {\n        require(storeToStoreOwner[_storeId] == msg.sender);\n\n        Item memory newItem = Item({\n            storeId: _storeId,\n            imageUrl: _imageUrl,\n            title: _title,\n            description: _description,\n            price: _price,\n            quantity: _quantity,\n            active: true\n        });\n\n        items.push(newItem);\n        \n        itemToStore[itemsCount] = _storeId;\n\n        itemsCount = itemsCount.add(1);\n     }\n\n    // FUNCTION removeItem [STOREOWNER]\n    function removeItem(uint _itemId) public onlyStoreOwner stopInEmergency {\n        items[_itemId].active = false;\n    }\n\n    // FUNCTION editItem [STOREOWNER]\n    function editItem(uint _itemId, string _imageUrl, string _title, string _description, uint _price, uint _quantity) public onlyStoreOwner {\n        require(storeToStoreOwner[items[_itemId].storeId] == msg.sender);\n\n        items[_itemId].imageUrl = _imageUrl;\n        items[_itemId].title = _title;\n        items[_itemId].description = _description;\n        items[_itemId].price = _price;\n        items[_itemId].quantity = _quantity;\n    }\n\n\n    // FUNCTION buyItem [STOREOWNER | BUYER] [CANNOT BUY FROM OWN STORE]\n    function buy(uint _itemId) public payable stopInEmergency {\n        require(msg.sender != storeToStoreOwner[items[_itemId].storeId]);\n        require(msg.value == items[_itemId].price);\n        require(items[_itemId].quantity > 0);\n        \n        pendingWithdrawals[storeToStoreOwner[items[_itemId].storeId]] =  pendingWithdrawals[storeToStoreOwner[items[_itemId].storeId]].add(items[_itemId].price);\n        items[_itemId].quantity = items[_itemId].quantity.sub(1);\n    }\n    \n\n    // FUNCTION withdraw\n    function withdraw() public {\n\n        \n        uint amount = pendingWithdrawals[msg.sender];\n        // Prevent re-entrancy attacks\n        pendingWithdrawals[msg.sender] = 0;\n        msg.sender.transfer(amount);\n    }\n\n}",
  "sourcePath": "/Users/willsputra/Desktop/projects/marketh/contracts/Marketh.sol",
  "compiler": {
    "name": "solc",
    "version": "0.4.24+commit.e67f0147.Emscripten.clang"
  },
  "schemaVersion": "2.0.1",
  "updatedAt": "2018-08-17T00:36:18.183Z"
}