{
  "contractName": "Marketh",
  "abi": [
    {
      "constant": true,
      "inputs": [
        {
          "name": "",
          "type": "address"
        }
      ],
      "name": "storeOwners",
      "outputs": [
        {
          "name": "",
          "type": "bool"
        }
      ],
      "payable": false,
      "stateMutability": "view",
      "type": "function"
    },
    {
      "constant": true,
      "inputs": [
        {
          "name": "",
          "type": "uint256"
        }
      ],
      "name": "itemToStore",
      "outputs": [
        {
          "name": "",
          "type": "uint256"
        }
      ],
      "payable": false,
      "stateMutability": "view",
      "type": "function"
    },
    {
      "constant": true,
      "inputs": [
        {
          "name": "",
          "type": "address"
        },
        {
          "name": "",
          "type": "uint256"
        }
      ],
      "name": "storeOwnerToStores",
      "outputs": [
        {
          "name": "",
          "type": "uint256"
        }
      ],
      "payable": false,
      "stateMutability": "view",
      "type": "function"
    },
    {
      "constant": true,
      "inputs": [],
      "name": "stopped",
      "outputs": [
        {
          "name": "",
          "type": "bool"
        }
      ],
      "payable": false,
      "stateMutability": "view",
      "type": "function"
    },
    {
      "constant": true,
      "inputs": [],
      "name": "owner",
      "outputs": [
        {
          "name": "",
          "type": "address"
        }
      ],
      "payable": false,
      "stateMutability": "view",
      "type": "function"
    },
    {
      "constant": true,
      "inputs": [],
      "name": "storesCount",
      "outputs": [
        {
          "name": "",
          "type": "uint256"
        }
      ],
      "payable": false,
      "stateMutability": "view",
      "type": "function"
    },
    {
      "constant": true,
      "inputs": [],
      "name": "storeOwnersCount",
      "outputs": [
        {
          "name": "",
          "type": "uint256"
        }
      ],
      "payable": false,
      "stateMutability": "view",
      "type": "function"
    },
    {
      "constant": true,
      "inputs": [
        {
          "name": "",
          "type": "uint256"
        }
      ],
      "name": "items",
      "outputs": [
        {
          "name": "storeId",
          "type": "uint256"
        },
        {
          "name": "imageUrl",
          "type": "string"
        },
        {
          "name": "title",
          "type": "string"
        },
        {
          "name": "description",
          "type": "string"
        },
        {
          "name": "price",
          "type": "uint256"
        },
        {
          "name": "quantity",
          "type": "uint256"
        },
        {
          "name": "active",
          "type": "bool"
        }
      ],
      "payable": false,
      "stateMutability": "view",
      "type": "function"
    },
    {
      "constant": true,
      "inputs": [],
      "name": "itemsCount",
      "outputs": [
        {
          "name": "",
          "type": "uint256"
        }
      ],
      "payable": false,
      "stateMutability": "view",
      "type": "function"
    },
    {
      "constant": true,
      "inputs": [
        {
          "name": "",
          "type": "uint256"
        }
      ],
      "name": "stores",
      "outputs": [
        {
          "name": "imageUrl",
          "type": "string"
        },
        {
          "name": "title",
          "type": "string"
        },
        {
          "name": "description",
          "type": "string"
        },
        {
          "name": "active",
          "type": "bool"
        }
      ],
      "payable": false,
      "stateMutability": "view",
      "type": "function"
    },
    {
      "constant": false,
      "inputs": [
        {
          "name": "newOwner",
          "type": "address"
        }
      ],
      "name": "transferOwnership",
      "outputs": [],
      "payable": false,
      "stateMutability": "nonpayable",
      "type": "function"
    },
    {
      "constant": true,
      "inputs": [
        {
          "name": "",
          "type": "address"
        }
      ],
      "name": "pendingWithdrawals",
      "outputs": [
        {
          "name": "",
          "type": "uint256"
        }
      ],
      "payable": false,
      "stateMutability": "view",
      "type": "function"
    },
    {
      "constant": true,
      "inputs": [
        {
          "name": "",
          "type": "uint256"
        }
      ],
      "name": "storeToStoreOwner",
      "outputs": [
        {
          "name": "",
          "type": "address"
        }
      ],
      "payable": false,
      "stateMutability": "view",
      "type": "function"
    },
    {
      "inputs": [],
      "payable": false,
      "stateMutability": "nonpayable",
      "type": "constructor"
    },
    {
      "payable": true,
      "stateMutability": "payable",
      "type": "fallback"
    },
    {
      "anonymous": false,
      "inputs": [
        {
          "indexed": true,
          "name": "previousOwner",
          "type": "address"
        },
        {
          "indexed": true,
          "name": "newOwner",
          "type": "address"
        }
      ],
      "name": "OwnershipTransferred",
      "type": "event"
    },
    {
      "constant": false,
      "inputs": [],
      "name": "toggleContractActive",
      "outputs": [],
      "payable": false,
      "stateMutability": "nonpayable",
      "type": "function"
    },
    {
      "constant": false,
      "inputs": [
        {
          "name": "_recipient",
          "type": "address"
        }
      ],
      "name": "addStoreOwner",
      "outputs": [],
      "payable": false,
      "stateMutability": "nonpayable",
      "type": "function"
    },
    {
      "constant": false,
      "inputs": [
        {
          "name": "_recipient",
          "type": "address"
        }
      ],
      "name": "removeStoreOwner",
      "outputs": [],
      "payable": false,
      "stateMutability": "nonpayable",
      "type": "function"
    },
    {
      "constant": false,
      "inputs": [
        {
          "name": "_imageUrl",
          "type": "string"
        },
        {
          "name": "_title",
          "type": "string"
        },
        {
          "name": "_description",
          "type": "string"
        }
      ],
      "name": "addStore",
      "outputs": [],
      "payable": false,
      "stateMutability": "nonpayable",
      "type": "function"
    },
    {
      "constant": false,
      "inputs": [
        {
          "name": "_storeId",
          "type": "uint256"
        }
      ],
      "name": "removeStore",
      "outputs": [],
      "payable": false,
      "stateMutability": "nonpayable",
      "type": "function"
    },
    {
      "constant": false,
      "inputs": [
        {
          "name": "_storeId",
          "type": "uint256"
        },
        {
          "name": "_imageUrl",
          "type": "string"
        },
        {
          "name": "_title",
          "type": "string"
        },
        {
          "name": "_description",
          "type": "string"
        },
        {
          "name": "_price",
          "type": "uint256"
        },
        {
          "name": "_quantity",
          "type": "uint256"
        }
      ],
      "name": "addItem",
      "outputs": [],
      "payable": false,
      "stateMutability": "nonpayable",
      "type": "function"
    },
    {
      "constant": false,
      "inputs": [
        {
          "name": "_itemId",
          "type": "uint256"
        }
      ],
      "name": "removeItem",
      "outputs": [],
      "payable": false,
      "stateMutability": "nonpayable",
      "type": "function"
    },
    {
      "constant": false,
      "inputs": [
        {
          "name": "_itemId",
          "type": "uint256"
        },
        {
          "name": "_imageUrl",
          "type": "string"
        },
        {
          "name": "_title",
          "type": "string"
        },
        {
          "name": "_description",
          "type": "string"
        },
        {
          "name": "_price",
          "type": "uint256"
        },
        {
          "name": "_quantity",
          "type": "uint256"
        }
      ],
      "name": "editItem",
      "outputs": [],
      "payable": false,
      "stateMutability": "nonpayable",
      "type": "function"
    },
    {
      "constant": false,
      "inputs": [
        {
          "name": "_itemId",
          "type": "uint256"
        }
      ],
      "name": "buy",
      "outputs": [],
      "payable": true,
      "stateMutability": "payable",
      "type": "function"
    },
    {
      "constant": false,
      "inputs": [],
      "name": "withdraw",
      "outputs": [],
      "payable": false,
      "stateMutability": "nonpayable",
      "type": "function"
    }
  ],
  "bytecode": "0x608060405234801561001057600080fd5b5060008054600160a060020a03191633179055600b805460ff19169055611ab38061003c6000396000f3006080604052600436106101325763ffffffff7c0100000000000000000000000000000000000000000000000000000000600035041663057cc2a1811461013457806306dd79a8146101695780631385d24c146101935780631b486233146101a8578063339295221461027d5780633ccfd60b146102a15780636174fdd1146102b657806371329171146102d757806375f12b21146102ef5780638da5cb5b14610304578063940b6c18146103355780639adeb5f1146104185780639bc0432c14610439578063aa0cd2b814610451578063b75fd88f14610466578063bfb231d21461047b578063d5be1bc3146105f7578063d96a094a146106da578063e2c03ace146106e5578063e8a59cd8146106fa578063f2fde38b1461085e578063f3f437031461087f578063f4bf3200146108a0575b005b34801561014057600080fd5b50610155600160a060020a03600435166108b8565b604080519115158252519081900360200190f35b34801561017557600080fd5b506101816004356108cd565b60408051918252519081900360200190f35b34801561019f57600080fd5b506101326108df565b3480156101b457600080fd5b506040805160206004803580820135601f810184900484028501840190955284845261013294369492936024939284019190819084018382808284375050604080516020601f89358b018035918201839004830284018301909452808352979a99988101979196509182019450925082915084018382808284375050604080516020601f89358b018035918201839004830284018301909452808352979a99988101979196509182019450925082915084018382808284375094975061090a9650505050505050565b34801561028957600080fd5b50610181600160a060020a0360043516602435610aa1565b3480156102ad57600080fd5b50610132610ad1565b3480156102c257600080fd5b50610132600160a060020a0360043516610b16565b3480156102e357600080fd5b50610132600435610b74565b3480156102fb57600080fd5b50610155610c10565b34801561031057600080fd5b50610319610c19565b60408051600160a060020a039092168252519081900360200190f35b34801561034157600080fd5b5060408051602060046024803582810135601f810185900485028601850190965285855261013295833595369560449491939091019190819084018382808284375050604080516020601f89358b018035918201839004830284018301909452808352979a99988101979196509182019450925082915084018382808284375050604080516020601f89358b018035918201839004830284018301909452808352979a999881019791965091820194509250829150840183828082843750949750508435955050506020909201359150610c289050565b34801561042457600080fd5b50610132600160a060020a0360043516610e67565b34801561044557600080fd5b50610132600435610ec2565b34801561045d57600080fd5b50610181610f5e565b34801561047257600080fd5b50610181610f64565b34801561048757600080fd5b50610493600435610f6a565b604051808881526020018060200180602001806020018781526020018681526020018515151515815260200184810384528a818151815260200191508051906020019080838360005b838110156104f45781810151838201526020016104dc565b50505050905090810190601f1680156105215780820380516001836020036101000a031916815260200191505b5084810383528951815289516020918201918b019080838360005b8381101561055457818101518382015260200161053c565b50505050905090810190601f1680156105815780820380516001836020036101000a031916815260200191505b5084810382528851815288516020918201918a019080838360005b838110156105b457818101518382015260200161059c565b50505050905090810190601f1680156105e15780820380516001836020036101000a031916815260200191505b509a505050505050505050505060405180910390f35b34801561060357600080fd5b5060408051602060046024803582810135601f810185900485028601850190965285855261013295833595369560449491939091019190819084018382808284375050604080516020601f89358b018035918201839004830284018301909452808352979a99988101979196509182019450925082915084018382808284375050604080516020601f89358b018035918201839004830284018301909452808352979a99988101979196509182019450925082915084018382808284375094975050843595505050602090920135915061116d9050565b61013260043561137a565b3480156106f157600080fd5b50610181611688565b34801561070657600080fd5b5061071260043561168e565b604080518215156060820152608080825286519082015285519091829160208084019284019160a08501918a019080838360005b8381101561075e578181015183820152602001610746565b50505050905090810190601f16801561078b5780820380516001836020036101000a031916815260200191505b50848103835287518152875160209182019189019080838360005b838110156107be5781810151838201526020016107a6565b50505050905090810190601f1680156107eb5780820380516001836020036101000a031916815260200191505b50848103825286518152865160209182019188019080838360005b8381101561081e578181015183820152602001610806565b50505050905090810190601f16801561084b5780820380516001836020036101000a031916815260200191505b5097505050505050505060405180910390f35b34801561086a57600080fd5b50610132600160a060020a0360043516611878565b34801561088b57600080fd5b50610181600160a060020a036004351661190c565b3480156108ac57600080fd5b5061031960043561191e565b60066020526000908152604090205460ff1681565b60056020526000908152604090205481565b600054600160a060020a031633146108f657600080fd5b600b805460ff19811660ff90911615179055565b610912611961565b3360009081526006602052604090205460ff16151560011461096c576040805160e560020a62461bcd02815260206004820152601a6024820152600080516020611a68833981519152604482015290519081900360640190fd5b600b5460ff161515610a9b575060408051608081018252848152602080820185905281830184905260016060830181905260088054600090815260038452858120805473ffffffffffffffffffffffffffffffffffffffff191633908117909155815260048085529581209154825480850184559282528482209092019190915581548083018084559290915283518051949592948694929093027fb10e2d527612073b26eecdfd717e6a320cf44b4afac2b0732d9fcbe2b7fa0cf60192610a37928492019061198c565b506020828101518051610a50926001850192019061198c565b5060408201518051610a6c91600284019160209091019061198c565b50606091909101516003909101805460ff191691151591909117905550600854610a97906001611939565b6008555b50505050565b600460205281600052604060002081815481101515610abc57fe5b90600052602060002001600091509150505481565b336000818152600a6020526040808220805490839055905190929183156108fc02918491818181858888f19350505050158015610b12573d6000803e3d6000fd5b5050565b600054600160a060020a03163314610b2d57600080fd5b600b5460ff161515610b7157600160a060020a0381166000908152600660205260409020805460ff19169055600754610b6d90600163ffffffff61194f16565b6007555b50565b3360009081526006602052604090205460ff161515600114610bce576040805160e560020a62461bcd02815260206004820152601a6024820152600080516020611a68833981519152604482015290519081900360640190fd5b600b5460ff161515610b71576000600282815481101515610beb57fe5b60009182526020909120600790910201600601805460ff191691151591909117905550565b600b5460ff1681565b600054600160a060020a031681565b610c30611a0a565b3360009081526006602052604090205460ff161515600114610c8a576040805160e560020a62461bcd02815260206004820152601a6024820152600080516020611a68833981519152604482015290519081900360640190fd5b600087815260036020526040902054600160a060020a03163314610d1d576040805160e560020a62461bcd028152602060048201526024808201527f596f7520617265206e6f7420746865206f776e6572206f66207468697320737460448201527f6f72652e00000000000000000000000000000000000000000000000000000000606482015290519081900360840190fd5b506040805160e0810182528781526020808201888152928201879052606082018690526080820185905260a08201849052600160c0830181905260028054918201808255600091909152835160079092027f405787fa12a823e0f2b7631cc41b3ba8828b3321ca811111fa75cd3aa3bb5ace810192835594518051949591948694610dcc937f405787fa12a823e0f2b7631cc41b3ba8828b3321ca811111fa75cd3aa3bb5acf0192019061198c565b5060408201518051610de891600284019160209091019061198c565b5060608201518051610e0491600384019160209091019061198c565b506080820151600482015560a082015160058083019190915560c0909201516006909101805460ff1916911515919091179055600980546000908152602092909252604090912089905554610e5b91506001611939565b60095550505050505050565b600054600160a060020a03163314610e7e57600080fd5b600b5460ff161515610b7157600160a060020a0381166000908152600660205260409020805460ff19166001908117909155600754610b6d9163ffffffff61193916565b3360009081526006602052604090205460ff161515600114610f1c576040805160e560020a62461bcd02815260206004820152601a6024820152600080516020611a68833981519152604482015290519081900360640190fd5b600b5460ff161515610b71576000600182815481101515610f3957fe5b60009182526020909120600490910201600301805460ff191691151591909117905550565b60085481565b60075481565b6002805482908110610f7857fe5b9060005260206000209060070201600091509050806000015490806001018054600181600116156101000203166002900480601f01602080910402602001604051908101604052809291908181526020018280546001816001161561010002031660029004801561102a5780601f10610fff5761010080835404028352916020019161102a565b820191906000526020600020905b81548152906001019060200180831161100d57829003601f168201915b50505060028085018054604080516020601f60001961010060018716150201909416959095049283018590048502810185019091528181529596959450909250908301828280156110bc5780601f10611091576101008083540402835291602001916110bc565b820191906000526020600020905b81548152906001019060200180831161109f57829003601f168201915b5050505060038301805460408051602060026001851615610100026000190190941693909304601f810184900484028201840190925281815294959493509083018282801561114c5780601f106111215761010080835404028352916020019161114c565b820191906000526020600020905b81548152906001019060200180831161112f57829003601f168201915b50505050600483015460058401546006909401549293909290915060ff1687565b3360009081526006602052604090205460ff1615156001146111c7576040805160e560020a62461bcd02815260206004820152601a6024820152600080516020611a68833981519152604482015290519081900360640190fd5b33600160a060020a0316600360006002898154811015156111e457fe5b600091825260208083206007909202909101548352820192909252604001902054600160a060020a031614611289576040805160e560020a62461bcd02815260206004820152602960248201527f596f7520617265206e6f74207468652073746f7265206f776e6572206f66207460448201527f686973206974656d2e0000000000000000000000000000000000000000000000606482015290519081900360840190fd5b8460028781548110151561129957fe5b906000526020600020906007020160010190805190602001906112bd92919061198c565b50836002878154811015156112ce57fe5b906000526020600020906007020160020190805190602001906112f292919061198c565b508260028781548110151561130357fe5b9060005260206000209060070201600301908051906020019061132792919061198c565b508160028781548110151561133857fe5b9060005260206000209060070201600401819055508060028781548110151561135d57fe5b906000526020600020906007020160050181905550505050505050565b600b5460ff161515610b71576003600060028381548110151561139957fe5b60009182526020808320600792909202909101548352820192909252604001902054600160a060020a0316331415611441576040805160e560020a62461bcd02815260206004820152602660248201527f596f7520617265206e6f742061626c6520746f2062757920796f7572206f776e60448201527f206974656d2e0000000000000000000000000000000000000000000000000000606482015290519081900360840190fd5b600280548290811061144f57fe5b906000526020600020906007020160040154341415156114df576040805160e560020a62461bcd02815260206004820152602b60248201527f56616c7565207472616e73666572726564206973206e6f74207468652073616d60448201527f652061732070726963652e000000000000000000000000000000000000000000606482015290519081900360840190fd5b60006002828154811015156114f057fe5b906000526020600020906007020160050154111515611559576040805160e560020a62461bcd02815260206004820152601660248201527f54686973206974656d20697320736f6c64206f75742e00000000000000000000604482015290519081900360640190fd5b6115db60028281548110151561156b57fe5b906000526020600020906007020160040154600a60006003600060028781548110151561159457fe5b600091825260208083206007909202909101548352828101939093526040918201812054600160a060020a031684529183019390935291019020549063ffffffff61193916565b600a6000600360006002868154811015156115f257fe5b600091825260208083206007909202909101548352828101939093526040918201812054600160a060020a0316845291830193909352910190205560028054611662916001918490811061164257fe5b90600052602060002090600702016005015461194f90919063ffffffff16565b600280548390811061167057fe5b90600052602060002090600702016005018190555050565b60095481565b600180548290811061169c57fe5b60009182526020918290206004919091020180546040805160026001841615610100026000190190931692909204601f8101859004850283018501909152808252919350918391908301828280156117355780601f1061170a57610100808354040283529160200191611735565b820191906000526020600020905b81548152906001019060200180831161171857829003601f168201915b505050505090806001018054600181600116156101000203166002900480601f0160208091040260200160405190810160405280929190818152602001828054600181600116156101000203166002900480156117d35780601f106117a8576101008083540402835291602001916117d3565b820191906000526020600020905b8154815290600101906020018083116117b657829003601f168201915b50505060028085018054604080516020601f60001961010060018716150201909416959095049283018590048502810185019091528181529596959450909250908301828280156118655780601f1061183a57610100808354040283529160200191611865565b820191906000526020600020905b81548152906001019060200180831161184857829003601f168201915b5050506003909301549192505060ff1684565b600054600160a060020a0316331461188f57600080fd5b600160a060020a03811615156118a457600080fd5b60008054604051600160a060020a03808516939216917f8be0079c531659141344cd1fd0a4f28419497f9722a3daafe3b4186f6b6457e091a36000805473ffffffffffffffffffffffffffffffffffffffff1916600160a060020a0392909216919091179055565b600a6020526000908152604090205481565b600360205260009081526040902054600160a060020a031681565b60008282018381101561194857fe5b9392505050565b60008282111561195b57fe5b50900390565b6080604051908101604052806060815260200160608152602001606081526020016000151581525090565b828054600181600116156101000203166002900490600052602060002090601f016020900481019282601f106119cd57805160ff19168380011785556119fa565b828001600101855582156119fa579182015b828111156119fa5782518255916020019190600101906119df565b50611a06929150611a4a565b5090565b60e0604051908101604052806000815260200160608152602001606081526020016060815260200160008152602001600081526020016000151581525090565b611a6491905b80821115611a065760008155600101611a50565b905600596f7520617265206e6f7420612073746f7265206f776e65722e000000000000a165627a7a723058200a54eebd6b6b803a6dade3e700cbbe2e272cbb8fa70070c47ee612d322bf2f860029",
  "source": "pragma solidity ^0.4.22;\n\n/** @dev Uses Zeppelin from EthPM (see installed_contracts) */\nimport \"zeppelin/contracts/math/SafeMath.sol\";\nimport \"zeppelin/contracts/ownership/Ownable.sol\";\n\n/** @title Marketh */\ncontract Marketh is Ownable {\n\n    using SafeMath for uint;\n    \n    struct Item {\n        uint storeId;\n        string imageUrl;\n        string title;\n        string description;\n        uint price;\n        uint quantity;\n        bool active;\n    }\n    \n    struct Store {\n        string imageUrl;\n        string title;\n        string description;\n        bool active;\n    }\n\n    Store[] public stores;\n    \n    Item[] public items;\n    \n    mapping(uint => address) public storeToStoreOwner;\n    mapping(address => uint[]) public storeOwnerToStores;\n    \n    mapping(uint => uint) public itemToStore;\n\n    mapping(address => bool) public storeOwners;\n    \n    uint public storeOwnersCount;\n    uint public storesCount;\n    uint public itemsCount;\n    \n    mapping (address => uint) public pendingWithdrawals;\n\n    bool public stopped; \n\n    /** @dev Initialize CIRCUIT BREAKER */\n    constructor() public {\n        stopped = false;\n    }\n\n    /** @dev CIRCUIT BREAKER: Allows owner to deactivate the contract */\n    function toggleContractActive() public onlyOwner {\n        stopped = !stopped;\n    }\n\n    modifier stopInEmergency() {\n        if(!stopped) _;\n    }\n\n    modifier onlyInEmergency() {\n        if(stopped) _;\n    }\n\n\n    modifier onlyStoreOwner(){\n        require(storeOwners[msg.sender] == true, \"You are not a store owner.\");\n        _;\n    }\n\n    /** @dev Adds an address as a Store Owner.\n      * @param _recipient Address of the Store Owner.\n      */       \n    function addStoreOwner(address _recipient) public onlyOwner stopInEmergency{\n        storeOwners[_recipient] = true;\n        storeOwnersCount = storeOwnersCount.add(1);\n    }\n\n    /** @dev Removes a Store Owner.\n      * @param _recipient Address of the Store Owner.\n      */    \n    function removeStoreOwner(address _recipient) public onlyOwner stopInEmergency{\n        storeOwners[_recipient] = false;\n        storeOwnersCount = storeOwnersCount.sub(1);\n    }\n\n    /** @dev Adds a Store.\n      * @param _imageUrl Image URL of the Store\n      * @param _title Title of the Store\n      * @param _description Description of the Store\n      */    \n    function addStore(string _imageUrl, string _title, string _description) public onlyStoreOwner stopInEmergency {\n        Store memory newStore = Store({\n            imageUrl: _imageUrl,\n            title: _title,\n            description: _description,\n            active: true\n        });\n        \n        storeToStoreOwner[storesCount] = msg.sender;\n        storeOwnerToStores[msg.sender].push(storesCount);\n\n        stores.push(newStore);\n\n        storesCount = storesCount.add(1);\n    }\n\n    /** @dev Removes a Store.\n      * @param _storeId ID of the Store (index in stores array)\n      */ \n    function removeStore(uint _storeId) public onlyStoreOwner stopInEmergency {\n        stores[_storeId].active = false;\n    }\n\n    /** @dev Adds an Item.\n      * @param _storeId ID of the Store (index in stores array)\n      * @param _imageUrl Image URL of the Item\n      * @param _title Title of the Item\n      * @param _description Description of the Item\n      * @param _price Price of the Item\n      * @param _quantity Quantity of the Item\n      */    \n    function addItem(uint _storeId, string _imageUrl, string _title, string _description, uint _price, uint _quantity) public onlyStoreOwner {\n        require(storeToStoreOwner[_storeId] == msg.sender, \"You are not the owner of this store.\");\n\n        Item memory newItem = Item({\n            storeId: _storeId,\n            imageUrl: _imageUrl,\n            title: _title,\n            description: _description,\n            price: _price,\n            quantity: _quantity,\n            active: true\n        });\n\n        items.push(newItem);\n        \n        itemToStore[itemsCount] = _storeId;\n\n        itemsCount = itemsCount.add(1);\n    }\n\n    /** @dev Removes an Item.\n      * @param _itemId ID of the Item (index in items array)\n      */ \n    function removeItem(uint _itemId) public onlyStoreOwner stopInEmergency {\n        items[_itemId].active = false;\n    }\n\n    /** @dev Edits an Item.\n      * @param _itemId ID of the Item (index in items array)\n      * @param _imageUrl Image URL of the Item (new)\n      * @param _title Title of the Item (new)\n      * @param _description Description of the Item (new)\n      * @param _price Price of the Item (new)\n      * @param _quantity Quantity of the Item (new)\n      */   \n    function editItem(uint _itemId, string _imageUrl, string _title, string _description, uint _price, uint _quantity) public onlyStoreOwner {\n        require(storeToStoreOwner[items[_itemId].storeId] == msg.sender, \"You are not the store owner of this item.\");\n\n        items[_itemId].imageUrl = _imageUrl;\n        items[_itemId].title = _title;\n        items[_itemId].description = _description;\n        items[_itemId].price = _price;\n        items[_itemId].quantity = _quantity;\n    }\n\n\n    /** @dev Buys an Item.\n      * @param _itemId ID of the Item (index in items array)\n      */   \n    function buy(uint _itemId) public payable stopInEmergency {\n        require(msg.sender != storeToStoreOwner[items[_itemId].storeId], \"You are not able to buy your own item.\");\n        require(msg.value == items[_itemId].price, \"Value transferred is not the same as price.\");\n        require(items[_itemId].quantity > 0, \"This item is sold out.\");\n        \n        pendingWithdrawals[storeToStoreOwner[items[_itemId].storeId]] = pendingWithdrawals[storeToStoreOwner[items[_itemId].storeId]]\n        .add(items[_itemId].price);\n        items[_itemId].quantity = items[_itemId].quantity.sub(1);\n    }\n    \n    /** @dev Withdraws the balance.\n      */   \n    function withdraw() public {\n        uint amount = pendingWithdrawals[msg.sender];\n        // Prevent re-entrancy attacks\n        pendingWithdrawals[msg.sender] = 0;\n        msg.sender.transfer(amount);\n    }\n\n    /** @dev Fallback function.\n     */\n    function() external payable {\n\n    }\n\n}",
  "sourcePath": "/Users/willsputra/Desktop/projects/marketh/contracts/Marketh.sol",
  "compiler": {
    "name": "solc",
    "version": "0.4.24+commit.e67f0147.Emscripten.clang"
  },
  "schemaVersion": "2.0.1",
  "updatedAt": "2018-08-22T06:43:24.882Z"
}