{
  "contractName": "Marketh",
  "abi": [
    {
      "constant": true,
      "inputs": [
        {
          "name": "",
          "type": "address"
        }
      ],
      "name": "storeOwners",
      "outputs": [
        {
          "name": "",
          "type": "bool"
        }
      ],
      "payable": false,
      "stateMutability": "view",
      "type": "function"
    },
    {
      "constant": true,
      "inputs": [],
      "name": "storesCount",
      "outputs": [
        {
          "name": "",
          "type": "uint256"
        }
      ],
      "payable": false,
      "stateMutability": "view",
      "type": "function"
    },
    {
      "constant": true,
      "inputs": [],
      "name": "storeOwnersCount",
      "outputs": [
        {
          "name": "",
          "type": "uint256"
        }
      ],
      "payable": false,
      "stateMutability": "view",
      "type": "function"
    },
    {
      "constant": true,
      "inputs": [
        {
          "name": "",
          "type": "uint256"
        }
      ],
      "name": "items",
      "outputs": [
        {
          "name": "storeId",
          "type": "uint256"
        },
        {
          "name": "imageUrl",
          "type": "string"
        },
        {
          "name": "title",
          "type": "string"
        },
        {
          "name": "description",
          "type": "string"
        },
        {
          "name": "price",
          "type": "uint256"
        },
        {
          "name": "quantity",
          "type": "uint256"
        },
        {
          "name": "active",
          "type": "bool"
        }
      ],
      "payable": false,
      "stateMutability": "view",
      "type": "function"
    },
    {
      "constant": true,
      "inputs": [],
      "name": "itemsCount",
      "outputs": [
        {
          "name": "",
          "type": "uint256"
        }
      ],
      "payable": false,
      "stateMutability": "view",
      "type": "function"
    },
    {
      "constant": true,
      "inputs": [
        {
          "name": "",
          "type": "uint256"
        }
      ],
      "name": "stores",
      "outputs": [
        {
          "name": "owner",
          "type": "address"
        },
        {
          "name": "imageUrl",
          "type": "string"
        },
        {
          "name": "title",
          "type": "string"
        },
        {
          "name": "description",
          "type": "string"
        },
        {
          "name": "active",
          "type": "bool"
        }
      ],
      "payable": false,
      "stateMutability": "view",
      "type": "function"
    },
    {
      "constant": true,
      "inputs": [],
      "name": "admin",
      "outputs": [
        {
          "name": "",
          "type": "address"
        }
      ],
      "payable": false,
      "stateMutability": "view",
      "type": "function"
    },
    {
      "inputs": [],
      "payable": false,
      "stateMutability": "nonpayable",
      "type": "constructor"
    },
    {
      "constant": false,
      "inputs": [
        {
          "name": "_recipient",
          "type": "address"
        }
      ],
      "name": "addStoreOwner",
      "outputs": [],
      "payable": false,
      "stateMutability": "nonpayable",
      "type": "function"
    },
    {
      "constant": false,
      "inputs": [
        {
          "name": "_recipient",
          "type": "address"
        }
      ],
      "name": "removeStoreOwner",
      "outputs": [],
      "payable": false,
      "stateMutability": "nonpayable",
      "type": "function"
    },
    {
      "constant": false,
      "inputs": [
        {
          "name": "_imageUrl",
          "type": "string"
        },
        {
          "name": "_title",
          "type": "string"
        },
        {
          "name": "_description",
          "type": "string"
        }
      ],
      "name": "addStore",
      "outputs": [],
      "payable": false,
      "stateMutability": "nonpayable",
      "type": "function"
    },
    {
      "constant": false,
      "inputs": [
        {
          "name": "_storeId",
          "type": "uint256"
        }
      ],
      "name": "removeStore",
      "outputs": [],
      "payable": false,
      "stateMutability": "nonpayable",
      "type": "function"
    },
    {
      "constant": false,
      "inputs": [
        {
          "name": "_storeId",
          "type": "uint256"
        },
        {
          "name": "_imageUrl",
          "type": "string"
        },
        {
          "name": "_title",
          "type": "string"
        },
        {
          "name": "_description",
          "type": "string"
        },
        {
          "name": "_price",
          "type": "uint256"
        },
        {
          "name": "_quantity",
          "type": "uint256"
        }
      ],
      "name": "addItem",
      "outputs": [],
      "payable": false,
      "stateMutability": "nonpayable",
      "type": "function"
    },
    {
      "constant": false,
      "inputs": [
        {
          "name": "_itemId",
          "type": "uint256"
        }
      ],
      "name": "removeItem",
      "outputs": [],
      "payable": false,
      "stateMutability": "nonpayable",
      "type": "function"
    }
  ],
  "bytecode": "0x608060405234801561001057600080fd5b5060028054600160a060020a031916331790556110bd806100326000396000f3006080604052600436106100c45763ffffffff7c0100000000000000000000000000000000000000000000000000000000600035041663057cc2a181146100c95780631b486233146100fe5780636174fdd1146101d557806371329171146101f6578063940b6c181461020e5780639adeb5f1146102f15780639bc0432c14610312578063aa0cd2b81461032a578063b75fd88f14610351578063bfb231d214610366578063e2c03ace146104e2578063e8a59cd8146104f7578063f851a44014610677575b600080fd5b3480156100d557600080fd5b506100ea600160a060020a03600435166106a8565b604080519115158252519081900360200190f35b34801561010a57600080fd5b506040805160206004803580820135601f81018490048402850184019095528484526101d394369492936024939284019190819084018382808284375050604080516020601f89358b018035918201839004830284018301909452808352979a99988101979196509182019450925082915084018382808284375050604080516020601f89358b018035918201839004830284018301909452808352979a9998810197919650918201945092508291508401838280828437509497506106bd9650505050505050565b005b3480156101e157600080fd5b506101d3600160a060020a0360043516610812565b34801561020257600080fd5b506101d3600435610854565b34801561021a57600080fd5b5060408051602060046024803582810135601f81018590048502860185019096528585526101d395833595369560449491939091019190819084018382808284375050604080516020601f89358b018035918201839004830284018301909452808352979a99988101979196509182019450925082915084018382808284375050604080516020601f89358b018035918201839004830284018301909452808352979a9998810197919650918201945092508291508401838280828437509497505084359550505060209092013591506109089050565b3480156102fd57600080fd5b506101d3600160a060020a0360043516610a8c565b34801561031e57600080fd5b506101d3600435610ad3565b34801561033657600080fd5b5061033f610b67565b60408051918252519081900360200190f35b34801561035d57600080fd5b5061033f610b6d565b34801561037257600080fd5b5061037e600435610b73565b604051808881526020018060200180602001806020018781526020018681526020018515151515815260200184810384528a818151815260200191508051906020019080838360005b838110156103df5781810151838201526020016103c7565b50505050905090810190601f16801561040c5780820380516001836020036101000a031916815260200191505b5084810383528951815289516020918201918b019080838360005b8381101561043f578181015183820152602001610427565b50505050905090810190601f16801561046c5780820380516001836020036101000a031916815260200191505b5084810382528851815288516020918201918a019080838360005b8381101561049f578181015183820152602001610487565b50505050905090810190601f1680156104cc5780820380516001836020036101000a031916815260200191505b509a505050505050505050505060405180910390f35b3480156104ee57600080fd5b5061033f610d76565b34801561050357600080fd5b5061050f600435610d7c565b6040518086600160a060020a0316600160a060020a0316815260200180602001806020018060200185151515158152602001848103845288818151815260200191508051906020019080838360005b8381101561057657818101518382015260200161055e565b50505050905090810190601f1680156105a35780820380516001836020036101000a031916815260200191505b50848103835287518152875160209182019189019080838360005b838110156105d65781810151838201526020016105be565b50505050905090810190601f1680156106035780820380516001836020036101000a031916815260200191505b50848103825286518152865160209182019188019080838360005b8381101561063657818101518382015260200161061e565b50505050905090810190601f1680156106635780820380516001836020036101000a031916815260200191505b509850505050505050505060405180910390f35b34801561068357600080fd5b5061068c610f6c565b60408051600160a060020a039092168252519081900360200190f35b60036020526000908152604090205460ff1681565b6106c5610f7b565b3360009081526003602052604090205460ff1615156001146106e657600080fd5b506040805160a08101825233815260208082018681529282018590526060820184905260016080830181905260008054918201808255908052835160059092027f290decd9548b62a8d60345a988386fc84ba6bc95484008f6362f93160ef3e56381018054600160a060020a039490941673ffffffffffffffffffffffffffffffffffffffff19909416939093178355945180519495919486946107ae937f290decd9548b62a8d60345a988386fc84ba6bc95484008f6362f93160ef3e56401920190610fb6565b50604082015180516107ca916002840191602090910190610fb6565b50606082015180516107e6916003840191602090910190610fb6565b50608091909101516004909101805460ff19169115159190911790555050600580546001019055505050565b600254600160a060020a0316331461082957600080fd5b600160a060020a03166000908152600360205260409020805460ff1916905560048054600019019055565b3360009081526003602052604090205460ff16151560011461087557600080fd5b6001805433916000918490811061088857fe5b6000918252602090912060079091020154815481106108a357fe5b6000918252602090912060059091020154600160a060020a0316146108c757600080fd5b60006001828154811015156108d857fe5b600091825260209091206007909102016006908101805460ff191692151592909217909155805460001901905550565b610910611034565b3360009081526003602052604090205460ff16151560011461093157600080fd5b600080543391908990811061094257fe5b6000918252602090912060059091020154600160a060020a03161461096657600080fd5b506040805160e0810182528781526020808201888152928201879052606082018690526080820185905260a08201849052600160c08301819052805480820180835560009290925283517fb10e2d527612073b26eecdfd717e6a320cf44b4afac2b0732d9fcbe2b7fa0cf6600790920291820190815594518051949592948694610a14937fb10e2d527612073b26eecdfd717e6a320cf44b4afac2b0732d9fcbe2b7fa0cf701920190610fb6565b5060408201518051610a30916002840191602090910190610fb6565b5060608201518051610a4c916003840191602090910190610fb6565b506080820151600482015560a0820151600582015560c0909101516006918201805460ff1916911515919091179055805460010190555050505050505050565b600254600160a060020a03163314610aa357600080fd5b600160a060020a03166000908152600360205260409020805460ff19166001908117909155600480549091019055565b3360009081526003602052604090205460ff161515600114610af457600080fd5b6000805433919083908110610b0557fe5b6000918252602090912060059091020154600160a060020a031614610b2957600080fd5b60008082815481101515610b3957fe5b60009182526020909120600591820201600401805460ff191692151592909217909155805460001901905550565b60055481565b60045481565b6001805482908110610b8157fe5b9060005260206000209060070201600091509050806000015490806001018054600181600116156101000203166002900480601f016020809104026020016040519081016040528092919081815260200182805460018160011615610100020316600290048015610c335780601f10610c0857610100808354040283529160200191610c33565b820191906000526020600020905b815481529060010190602001808311610c1657829003601f168201915b50505060028085018054604080516020601f6000196101006001871615020190941695909504928301859004850281018501909152818152959695945090925090830182828015610cc55780601f10610c9a57610100808354040283529160200191610cc5565b820191906000526020600020905b815481529060010190602001808311610ca857829003601f168201915b5050505060038301805460408051602060026001851615610100026000190190941693909304601f8101849004840282018401909252818152949594935090830182828015610d555780601f10610d2a57610100808354040283529160200191610d55565b820191906000526020600020905b815481529060010190602001808311610d3857829003601f168201915b50505050600483015460058401546006909401549293909290915060ff1687565b60065481565b6000805482908110610d8a57fe5b600091825260209182902060059091020180546001808301805460408051601f6002600019968516156101000296909601909316949094049182018790048702840187019052808352600160a060020a039093169550929390929190830182828015610e375780601f10610e0c57610100808354040283529160200191610e37565b820191906000526020600020905b815481529060010190602001808311610e1a57829003601f168201915b50505060028085018054604080516020601f6000196101006001871615020190941695909504928301859004850281018501909152818152959695945090925090830182828015610ec95780601f10610e9e57610100808354040283529160200191610ec9565b820191906000526020600020905b815481529060010190602001808311610eac57829003601f168201915b5050505060038301805460408051602060026001851615610100026000190190941693909304601f8101849004840282018401909252818152949594935090830182828015610f595780601f10610f2e57610100808354040283529160200191610f59565b820191906000526020600020905b815481529060010190602001808311610f3c57829003601f168201915b5050506004909301549192505060ff1685565b600254600160a060020a031681565b60a0604051908101604052806000600160a060020a031681526020016060815260200160608152602001606081526020016000151581525090565b828054600181600116156101000203166002900490600052602060002090601f016020900481019282601f10610ff757805160ff1916838001178555611024565b82800160010185558215611024579182015b82811115611024578251825591602001919060010190611009565b50611030929150611074565b5090565b60e0604051908101604052806000815260200160608152602001606081526020016060815260200160008152602001600081526020016000151581525090565b61108e91905b80821115611030576000815560010161107a565b905600a165627a7a7230582088d670ace450dc60e40d3e8d72e03ec58e19012262eff1c097189ad9c1423ce70029",
  "source": "pragma solidity ^0.4.0;\n\ncontract Marketh {\n    struct Store {\n        address owner;\n        string imageUrl;\n        string title;\n        string description;\n        bool active;\n    }\n\n    Store[] public stores;\n\n    struct Item {\n        uint storeId;\n        string imageUrl;\n        string title;\n        string description;\n        uint price;\n        uint quantity;\n        bool active;\n    }\n\n    Item[] public items;\n\n    address public admin;\n\n    mapping(address => bool) public storeOwners;\n    \n    uint public storeOwnersCount;\n    uint public storesCount;\n    uint public itemsCount;\n\n    constructor() public {\n        admin = msg.sender;\n    }\n\n    // MODIFIER admin\n    modifier onlyAdmin() {\n        require(msg.sender == admin);\n        _;\n    }\n\n    // MODIFIER storeOwner\n    modifier onlyStoreOwner(){\n        require(storeOwners[msg.sender] == true);\n        _;\n    }\n\n    // FUNCTION addStoreOwner [ADMIN] PRIVATE\n    function addStoreOwner(address _recipient) public onlyAdmin {\n        storeOwners[_recipient] = true;\n        storeOwnersCount++;\n    }\n\n    // FUNCTION removeStoreOwner [ADMIN] PRIVATE\n    function removeStoreOwner(address _recipient) public onlyAdmin {\n        storeOwners[_recipient] = false;\n        storeOwnersCount--;\n    }\n\n    // FUNCTION viewStoreOwners [ADMIN] PRIVATE\n\n    // FUNCTION addStore [STOREOWNER]\n    function addStore(string _imageUrl, string _title, string _description) public onlyStoreOwner {\n        Store memory newStore = Store({\n            owner: msg.sender,\n            imageUrl: _imageUrl,\n            title: _title,\n            description: _description,\n            active: true\n        });\n\n        stores.push(newStore);\n\n        storesCount++;\n    }\n\n    // FUNCTION removeStore [STOREOWNER]\n    function removeStore(uint _storeId) public onlyStoreOwner {\n        require(stores[_storeId].owner == msg.sender);\n\n        stores[_storeId].active = false;\n\n        storesCount--;\n    }\n\n    // FUNCTION addItem [STOREOWNER]\n    function addItem(uint _storeId, string _imageUrl, string _title, string _description, uint _price, uint _quantity) public onlyStoreOwner {\n        require(stores[_storeId].owner == msg.sender);\n\n        Item memory newItem = Item({\n            storeId: _storeId,\n            imageUrl: _imageUrl,\n            title: _title,\n            description: _description,\n            price: _price,\n            quantity: _quantity,\n            active: true\n        });\n\n        items.push(newItem);\n\n        itemsCount++;\n    }\n\n    // FUNCTION removeItem [STOREOWNER]\n    function removeItem(uint _itemId) public onlyStoreOwner {\n        require(stores[items[_itemId].storeId].owner == msg.sender);\n\n        items[_itemId].active = false;\n\n        itemsCount--;\n\n    }\n\n    // FUNCTION editItem [STOREOWNER]\n\n    // FUNCTION viewStores [STOREOWNER | BUYER]\n\n    // FUNCTION viewItems [STOREOWNER | BUYER]\n\n    // FUNCTION buyItem [STOREOWNER | BUYER] [CANNOT BUY FROM OWN STORE]\n\n\n}",
  "sourcePath": "/Users/willsputra/Desktop/projects/marketh_draft1/contracts/Marketh.sol",
  "compiler": {
    "name": "solc",
    "version": "0.4.24+commit.e67f0147.Emscripten.clang"
  },
  "schemaVersion": "2.0.1",
  "updatedAt": "2018-08-12T04:16:15.335Z"
}